:10000000FC8BFF1F056C0200FFB0FF1FFFB0FF1F3E
:10001000FFB0FF1FFFB0FF1FFFB0FF1FFFB0FF1FAC
:10002000FFB0FF1FFFB0FF1FFFB0FF1FFFB0FF1F9C
:10003000FFB0FF1FFFB0FF1FFFB0FF1FFFB0FF1F8C
:04040C00FEFFFFFFF1
:10400000182946585CF30000B8000000F4070100CE
:0C40100000000000000003002040000041
:104020004A65E9EC392C02000000000000000000A5
:08403000FFFF02000040000048
:104040000001020304050607080C10141820304074
:10405000000102030405060708090909090A0A0AFA
:104060000A0B0B0B0B0C0C0C0C0D0D0D0D0D0D0D8F
:104070000D0E0E0E0E0E0E0E0E0E0E0E0E0E0E0E61
:104080000E0F0F0F0F0F0F0F0F0F0F0F0F0F0F0F41
:104090000F00000000000000FFFF01FF020304000A
:1040A00000FFFF03030500FF0300FF03040002FFFE
:1040B00001FFFF0500FF05000203FF0004FF0103ED
:1040C00003FF0000050003040001050505050102CA
:1040D00005020201030305030505030405000000B2
:1040E000F9B1FF1FF7B1FF1FF5B1FF1FE3B1FF1FCC
:1040F000E7B1FF1FF7B1FF1FF9B1FF1FF9B1FF1FB4
:10410000F9B1FF1FF9B1FF1FF7B1FF1FC5B1FF1FC5
:10411000F9B1FF1FE5B1FF1FC5B1FF1FF7B1FF1FC9
:10412000E1B1FF1FF5B1FF1FF9B1FF1FE1B1FF1FA3
:10413000F9B1FF1FF9B1FF1FF5B1FF1FE3B1FF1F79
:10414000F9B1FF1F4D0800205708002000000000B3
:104150000102000003FF0300000000000000000057
:1041600073FBFF1F01000000D0020000FFFFFFDF14
:1041700001010000D0020000FFFFFFDF000100008E
:104180000002419CFFFFFF9F030100010000419CD2
:10419000FFFFFF9F0201000100020200000000007B
:1041A000DDFBFF1FD102000001010000010800003B
:1041B000D102000000010000010800000000010120
:1041C0004040008040400000010001000201020167
:1041D0000302FFFF0403FFFF0100000000C9C90044
:1041E00000FF0303FF080B0B01FFFF0102FF080B99
:1041F0000B01FF0002010100C9C900010003020117
:1042000000010203010000000000010101030000A1
:1042100000400240F4010100001000020101010110
:10422000000301020000200000020300000203035B
:104230000304030780400240C8400240104102408E
:10424000FFFFFFFF00000000FFFFFFFF0000000076
:1042500021282080020009010130100000000380A5
:104260000000000200010240020000000000020005
:10427000400000000003000404000300FF0F0000E2
:1042800000000000FF0F000001010100010100011A
:104290000100000000000302E9BFFF1FEBBFFF1F8A
:1042A0000600000089FCFF1F000000000000000065
:1042B0000000000000000000000000002FFBFF1FB6
:1042C0000100000000000000EF0300206505002051
:1042D000E1020020710600204107002000000000DC
:1042E0000304050603050305030000050301040696
:1042F0000303020503020105020000400102000160
:10430000004000030300003E0105000000400104DE
:104310000101004000000100003E01010000020018
:104320000000050200000403000001010001030178
:104330000001000025B9FF1F000200050004000174
:1043400000010004D95300207C8FFF1F10000000E3
:10435000010000008C8FFF1F10000000050000000E
:104360009C8FFF1F1400000001000000B08FFF1F92
:1043700080000000A00000003090FF1F040000003B
:10438000A10000003490FF1F80010000A000000089
:10439000B491FF1F04000000A1000000D5AEFF1F74
:1043A000040000000000000004000000F7C4010049
:1043B0000400000000000000020000000011223391
:1043C000445566778899AABBCCDDEEFF000000005B
:1043D000000000000000000000000000EA7FD4FEA2
:1043E000BE1F7C3E0DA01B40873B0E75A42D485977
:1043F000A6BBA3E4391AF29628644EF4993A944C79
:104400003A2A4A007916AFF151010B1F10156D546D
:10441000981087632938A1B8405A97123D3ADA2D8F
:10442000AC9616F8F795AE36DBAEFF9259D0C9823E
:1044300055E68F795F2E4448D868017E291C7B6938
:10444000D1A7E06F4F77EAF3D063DD05AAD18012E0
:10445000BDD7E58967737269658314C5F36A42DE67
:10446000DD443499669F2618375890015520285FFF
:1044700000010001A6151A62E242595237679D8F6A
:104480005549FDA0069500A5E9561831859C171AD7
:10449000B7EDB9180D63C15256E4EAB9788F98C3E5
:1044A00083129EF78810C99BF1E1E623FAC456E710
:1044B000BA9FF81893D065E014BA8552B5A02FC4FE
:1044C000C5C4B3658D9F464F3C8F94D53F8D6C79A5
:1044D00017ABB25F76C9D705940CC99CFDA467667B
:1044E00029FA6BC45439C87658F05D508538988FD6
:1044F000EB54454D867EB1F9B564B1BDCB09AE40F4
:104500005BB514FFBF680A1484FEC3423C5FCA82D5
:1045100089ED7481ED477DD0555C5CF8D057C6615C
:10452000EE3C4B1912802FF8D44C31FB9ADC35232A
:10453000C2300C4DE1C2B59284D9DDF8EA11C38CCA
:1045400016811CAD3D2F863AC6F990BF7C760DB61C
:10455000B51E877159BD9CB92891E098F7A7D1572E
:104560002C5EB79E42D16AE1B90FA6ABB11E416A7B
:1045700024E29020EE1D206FF5DC7E92A873724736
:1045800021EE41A98F8144B953DA56DAABE2F2A4A5
:104590000B77B7C03DF3100F68F484ED1E626138ED
:1045A0008B0EBAE93D65625EBD664C717FC23830E4
:1045B00043AB150365D4D3DA36F02E018F0696CCC3
:1045C000A881407C1E155D4AD0AF8D0AD18D746DD7
:1045D00034EB2FB0B15FC6E2F3CB0A171165848FBD
:1045E000EA602AB27980B2EE4DCAC01CD3B9226EFD
:1045F0006FC8A11B0000001102000000088FFF1F00
:1046000001000000208FFF1F020000002C8FFF1F01
:1046100002000000448FFF1F73FB01000100000037
:10462000000000000BF80100040000000000000082
:10463000FFFFFFFF0000000000000000020000007C
:10464000FFFFFFFF00000000000000000700000067
:10465000020000000200000003000000040000004F
:104660000400000000000000000000000000000046
:10467000010000000700000003000000010000002E
:104680000200000004000000010000000100000022
:104690000300000001000000020000000100000112
:1046A0000001000100010100000000000001030002
:1046B00000208E4908708E48016831F04001016089
:1046C000016831F480710160016831F00801016016
:1046D000016831F020010160016831F4007101606E
:1046E000002084490870704710B5814C206830F074
:1046F000100020600020804908802078800607D5BF
:104700007E490868002803D07D48007809688847FA
:10471000FFF7CEFF207810F0060F03D041F288306B
:104720007849088010BD00207649088070480168EB
:1047300051F04001016000206C490870002072496E
:1047400008600020714908600020714908607148C4
:104750006A49086000207049086000206F490860BD
:10476000704738B504000D006D4804606D496A1E3D
:104770000A803222604B1A80026812783E2A17D1D2
:1047800002685278802A13D10988012910D158492A
:104790000A7812070CD5086850F0200008606248BB
:1047A000006856490860FFF79FFF06F0B8FF0CE06D
:1047B0000121504A1170006800785C4908705C481B
:1047C0000078022801DB01F0E4F931BD020000208D
:1047D000110089B2002913D0110089B2B1F5805FB0
:1047E0000ED243490B78DB060AD40B6833F008037A
:1047F0000B600B6853F010030B604949096808000F
:10480000704710B50400200080B2FFF7DFFF0028DA
:1048100004D037490A6852F008020A6010BD80B51A
:10482000FFF762FF01BD10B504002000C0B20328ED
:1048300001D0FFF759FF10BD10B504002000C0B231
:10484000032801D0FFF750FF29480168890403D5E8
:10485000016851F40041016010BD7CB504000D00F9
:104860001600ADF800506946200000F073F83200E1
:10487000D2B2BDF80010200006F0DBFE73BD30B4EC
:10488000030000200A00D2B2002A1CD01A0092B203
:10489000002A18D01A0092B2092A14D2254A0C0014
:1048A000E4B2144414F8014C012C0CD1224C0D003C
:1048B000EDB204EBC504083C200000240D00EDB26D
:1048C0002A4402F8014C30BC70470121194A030008
:1048D000DBB21A4402F8011C70470121154A03009B
:1048E000DBB21A4402F8011C70470000AE530020EE
:1048F0009C0A0020AD53002084530020C40A0020ED
:10490000AC53002076530020B80A0020BC0A0020D7
:10491000C00A0020FD94FF1FB00A0020B40A002046
:10492000980A002074530020C80A0020AA530020CF
:10493000B8530020AB530020A40A002010B5040097
:1049400003480078C00701D506F0B0FE10BD000096
:104950009C0A0020027842707F220270212282701D
:1049600003220A807047000081B00348006800906D
:10497000009880B201B07047046002402DE9F8430E
:1049800004000D0016002700A8465FF00009B1459D
:104990000BD219F03F0F01D101F066FC18F80900A5
:1049A00007F8090019F10109F1E72000BDE8F283D9
:1049B000DFF800F0F1830100DFF800F0058401006A
:1049C000DFF800F0018E0100DFF800F0058E010035
:1049D000DFF800F019150100DFF800F08B920100FC
:1049E000DFF800F083940100DFF800F03D92010051
:1049F00080B5DFF8B00B0078012802D101F034FC5B
:104A000001E0FFF7D5FFC0B202BD80B5FFF7F0FFB0
:104A100001BD80B5DFF88C0B0078002807D1DFF8E6
:104A2000940C0068C00502D40120FFF7C5FF01BD4A
:104A300001000868002801D00A691044704710B4CA
:104A40000020022810D241F21802DFF8243CDFF8DF
:104A5000581B02FB00F4195102FB00F21A4441F208
:104A60001403D150401CECE7DFF8D82BDFF8381BDB
:104A70001160C2F81411DFF8AC2C1160D16010BCC9
:104A8000704770B4002000210022022A14D2DFF8FF
:104A9000183B41F21804DFF8D85B04FB02F6AE596C
:104AA0005E40314304FB02F42C4441F21405645986
:104AB00063401943521CE8E7DFF8884BDFF8E83A17
:104AC00025685D402943D4F814415C402143DFF858
:104AD000544C25685D402943E4686340194300292C
:104AE00001D022231800C0B270BC704770B40022FD
:104AF000C2600022826000220260FF2202714A1E10
:104B0000012301248C4210D25B1C25010544AA60BC
:104B100025010544EB60002526018551002526016D
:104B2000064435712200641CECE701250E010644A1
:104B300046F8045C70BC704770B4030008009042F3
:104B40001DD006011E44B668310006011E44F668F9
:104B500034000E011E44F46026011E44B1601601AB
:104B60001E44F668350006011E44B26016011E445C
:104B7000F06006011E44F5602E011E44B06070BC5A
:104B8000704738B504000D002A00E1692000FFF7E6
:104B9000D3FF32BD10B50400A1682000FFF7F1FF7C
:104BA00010BD38B504000D00A26929002000FFF7F0
:104BB000C3FF32BDF8B504000D001700A668300130
:104BC000204400793900C9B2884203D23001204420
:104BD0008668F4E7320029002000FFF7ADFF2801C6
:104BE000204407712800F2BD70B504000D001600C6
:104BF0002A00D2B2E1692000FFF7DCFF0101665014
:104C000070BD70B504000D001600EE612A00DFF8DB
:104C1000A40C297E415C2000FFF7E6FF70BDDFF8A1
:104C2000A80BC16909014058704710B40160426087
:104C300082600024C46000240461002444610024D4
:104C40000462002480F8244003760024447610BCDB
:104C500070472DE9F0470025DFF86C6B0421300028
:104C6000FFF744FF02275FF001080024022C32D234
:104C7000002C02D0454618F101085FF02809DFF842
:104C80004CAB002341F21002DFF8E40941F21801B5
:104C900001FB05F10844011D09FB04F05044FFF736
:104CA000C4FF40F6FF7009FB04F151448860022004
:104CB00009FB04F15144C860012009FB04F151448F
:104CC00081F8240009FB04F90AEB0900390170504E
:104CD0007F1C641CCAE7BDE8F0870020DFF8F01AEB
:104CE00008700020DFF8EC1A08700020DFF8B41814
:104CF00008700020DFF8941C0860704780B5FFF74B
:104D0000ECFF0821DFF8B00BFFF7F0FEFFF7A1FF83
:104D100001230822DFF8A41BDFF8A40BFFF785FFAF
:104D20000020DFF8A01B4861FFF789FE4120DFF873
:104D30005C1C086000F0D4FC02BD80B500F0D0FC23
:104D400002220100DFF8480CFFF718FE01BD80B514
:104D500000F0C6FC0222DFF8381CFFF70FFE01BD91
:104D600070B404002000DFF82C5C0B00DBB255F8B7
:104D70003330002B0BD00E00F6B205EBC6052D79B3
:104D80001600F6B2B54202D0834200D2180070BCC1
:104D900070472DE9F84F05000C002700002C00D0CB
:104DA0007F1E17EB05085FF00009DFF8ECABBAF9DE
:104DB00000B0404600F049FFAAF80000BAF9000030
:104DC000002819D4DFF8D41BDFF8D40BBAF900207F
:104DD0000C2312FB03F21044027A1C20424301EB25
:104DE0000200808A401E060096EA0800002C00D1CE
:104DF000401C814616EA0909AAF800B04846BDE8F9
:104E0000F28F2DE9F04104000D001600290020006A
:104E1000FFF7BFFF00280BD0711C0F000021884650
:104E2000804505D2FF2107F8081018F10108F7E7BF
:104E3000BDE8F08170B504000D0016002A6831004D
:104E40002000FFF79BFD002070BD2DE9F34F83B0DC
:104E50000027DDF80C80049CDFF83C9B404600F006
:104E6000F4FEA9F80000B9F90000002802D53120AD
:104E700007005FE0B9F900000600002C5AD0FFF7E8
:104E8000C4FDFFF7C6FD5FF00C0ADFF814BBB9F9EB
:104E9000000010FB0AF058444068B0EB0800401CCA
:104EA0000500A5421ED2B9F80000401C06003000E3
:104EB000DFF89C1C097800B209B2884202DB31207D
:104EC000C0B239E016FB0AF05BF80000B0EB080056
:104ED00001900198844202D30198241A05E0312000
:104EE000C0B229E0250000200400FFF769FD00287A
:104EF00002D02220C0B21FE04146280001F050F944
:104F0000ADF80000FFF760FD002802D02220C0B2FB
:104F100012E0BDF80000002802D07220C0B20BE001
:104F2000A9F80060B9F9000010FB0AF05BF8000076
:104F30008046A2E73800C0B205B0BDE8F08F2DE989
:104F4000FF4F83B000208DF8000000260027DDF819
:104F50000C80049804685FF00009002C78D0DFF81A
:104F600070080078052873D1FFF74FFDFFF751FD5A
:104F70002500DFF824BA404600F067FEABF80000D9
:104F8000BBF90000002802D57120C0B267E00C21F7
:104F9000DFF80C2ADFF8043ABBF9000010FB01F03F
:104FA000104490F808C01C2000FB0CFC03EB0C0024
:104FB000808A401E18EA000F02D07220C0B24EE074
:104FC000BBF9000010FB01F010444068B0EB080092
:104FD000401C01900198A84202D2DDF804A00EE026
:104FE00015EB0900401E0700059800EB0702290099
:104FF0004046FFF706FF0600AA4616EB0A0AFFF72F
:10500000DFFC002802D07220C0B228E042465146A0
:105010000598484401F078F8ADF80200FFF7D4FC99
:10502000002802D07220C0B219E0BDF802000028AA
:1050300002D07220C0B212E01AEB0808A24504D2D6
:105040001AEB0909B4EB0A0487E70020040084E79F
:1050500004980068001B049908609DF8000007B0E0
:10506000BDE8F08F2DE9F04104000D000026DFF8C7
:105070002879B7F900802819401E00F0E6FD388035
:10508000B7F90000002814D42919DFF81029DFF837
:105090001009B7F900305FF00C0C13FB0CF3184447
:1050A000037A1C20434302EB0300808A401E014028
:1050B0000E00A7F800803000BDE8F0812DE9F84F20
:1050C00004000D001600FFF7A0FC286800902000E7
:1050D000FFF7AEFC07005FF00008DFF8C4BA9BF8EA
:1050E000100000282BD021682269DBF81800121A62
:1050F00001EB02000700DBF81820DFF8C0173800CA
:10510000FFF73CFC0099DBF81800411800913000D3
:10511000C0B2012813D00098DBF81C1088420ED0D2
:105120000099DBF81400FFF79DFF8046009840458A
:1051300001D2002080460098B0EB08000090DDF816
:105140000090DBF81C00009918EB0101884202D2A4
:105150005FF0710A13E09BF81000002807D13A00B5
:105160006946DBF81400FFF765FE824607E004237A
:105170003A006946DBF81400FFF7E1FE824650462C
:10518000C0B2002827D1DBF8141000984118CBF8E2
:105190001410DBF81C100098091ACBF81C100098AA
:1051A00081450AD1CBF818804246009807EB0001F0
:1051B000DFF80807FFF7E2FB0DE00098002808D0B1
:1051C0000099DBF81800091A29600020CBF81800B4
:1051D00001E0002028605046C0B2BDE8F28F2DE902
:1051E000F84305000E0017001C005FF000085FF098
:1051F00000092868002815D0686807733068696856
:105200000861706869688882DFF898096968886150
:1052100068682968884781464846C0B2002801D09E
:1052200022208046002C01D084F800904046C0B275
:10523000BDE8F2831CB500240020009000200190FE
:10524000002301226946DFF86009FFF7C8FF002844
:1052500001D0222004002000C0B216BD38B584B0B1
:1052600004000D006A46A968042000F0B7FC01AAFA
:10527000E968042000F0B2FC684602900820039020
:105280000023022202A92000FFF7A9FF05B030BDCC
:10529000F8B504000D0016001F0020003100282280
:1052A000FFF796FB25766761F2692100DFF80806B3
:1052B000FFF7A7FC94F8240001280AD1DFF80805BD
:1052C000C16809014158C26812018058006A401C37
:1052D0000862F1BD38B504000D00DFF8D0080069A0
:1052E000002806D02B0022000521DFF8C408FFF7B4
:1052F000CFFF31BD2DE9FE4304000D00FFF785FB14
:105300002000FFF795FB80462A00D2B2217E60691B
:10531000FFF726FD0090207E002800F08080022804
:1053200018D07CD3042815D079D3052840F0978075
:10533000CDF80480009802900023022201A9DFF832
:105340006808FFF74CFF002803D07220DFF86418CC
:10535000087088E0DFF86C050600DFF84408806913
:1053600030610098B0F5803F02D34FF6FF70009097
:10537000DFF84498C9F800800098A9F804003000CC
:10538000FFF756FB71690844C9F808000020A9F826
:105390000C004846FFF720FB002804D07220DFF8FD
:1053A0001418087019E0B9F80C00B9F80410084393
:1053B000002812D1207E04280BD14846FFF710FBAD
:1053C000002803D02220DFF8EC1708700220607656
:1053D00003E07220DFF8DC170870DFF8D8070078E8
:1053E00000281BD1B9F804000090B9F80C0000287F
:1053F0000AD07069B9F80C1040187061E269310088
:10540000DFF8B404FFF7FDFB207E022806D10098E8
:10541000002803D000992000FFF75CFF23E0207EE6
:10542000012806D101200700DFF874078069206198
:1054300001E0002007003A00D2B269462000FFF7E1
:105440003DFEDFF8701708700098002806D0207E17
:10545000002803D100992000FFF73CFF03E0222041
:10546000DFF85017087021690098411821616169BF
:105470000098091A6161DFF83C9799F8000000284C
:1054800006D1FFF7FEFA002802D0222089F800009A
:1054900099F80000BDE8FE832DE9F8430500FFF709
:1054A000B4FADFF82C8398F8000002280ADB3D48A4
:1054B0000078012803D198F80000052802D10520C2
:1054C00088F8000098F80000052845D10020040065
:1054D000DFF8E493D9F80C000600300159F8000019
:1054E00007002900C9B23800FFF704FF002825D1C2
:1054F000787E022805D0787E002824D1786900289B
:1055000021D131004846FFF74CFBD9F80C000028A8
:1055100002D1002088F8000097F8240001280CD15F
:10552000A949C868000108580700386A401E386257
:10553000386A002800D10C0005E004E0012088F85A
:105540000000A1480400002C06D0E068002803D029
:10555000E1682000FFF725FBBDE8F18310B50400EA
:105560009B48007802280DDBDFF85006C16809016E
:10557000084400792100C9B2884203D30120FFF713
:105580008BFFEDE710BD10B50400E069012808D1DC
:10559000DFF82C060078022803DB0020FFF77CFFF1
:1055A000F3E710BDBA530020647269422DE9F84355
:1055B00004000D001600FFF732FB07003800FFF76C
:1055C00037FA844206D1B868854203D2B868401BD6
:1055D000B04201D2722032E0DFF8F48198F8000086
:1055E000012829D0F868281838617E61DFF8B005F5
:1055F00090F828103976C26A3900AF48FFF701FBEE
:10560000DFF8C4914846FFF7C5FAD9F80800000151
:1056100059F80000D9F80810090159F80110096A71
:10562000491C01624846FFF7AEFF98F800000128C8
:1056300002D0052088F80000DFF878050078C0B2B5
:10564000BDE8F283782D002038B504000D00FFF787
:10565000DCF9CE4801682140A14204D10168A94388
:105660000160002002E0002101600120C0B232BDD3
:10567000400C0020F8B504000D00924E03234FF4B7
:105680008772DFF840153000FFF7CFFA4FF48077CC
:10569000B760042300220021DFF82C05FFF7C5FACC
:1056A000DFF81405C781DFF824150161FFF726FB39
:1056B000F2BD00009C0A002080B500210220FFF707
:1056C000D9FF02BD10B5FFF738FBFFF717FB040049
:1056D000FFF73DFB200010BD80B5FFF7FEFA01BDCE
:1056E00010B5FFF79CFA0400E06820612000FFF786
:1056F0009FF910BD10B5040000214020FFF7A4FF62
:10570000002801D0242003E061682068FFF79DFB9A
:105710000100C9B2002902D141219C4A1160C0B2E6
:1057200010BD0000300C002070B5040000250121E0
:105730000120FFF789FF002802D02420050007E0A0
:105740002069002804D1A06A002801D12220050088
:105750002800C0B2002810D1DFF8506430002100CA
:105760003C22FFF735F90020716B08700020DFF84C
:10577000301408630220854908602800C0B270BD5B
:105780001CB5002410211020FFF75EFF002802D076
:10579000242004000EE0002000900020019000234F
:1057A00003226946DFF80004FFF719FD002801D045
:1057B000722004002000C0B2002802D120207349CA
:1057C00008602000C0B216BD102F0020702C0020F1
:1057D000B8530020B95300202DE9FC4105000C000E
:1057E000002700208DF8000000212020FFF72CFF6B
:1057F000002802D02420070049E0DFF8B0836B4680
:105800000422290018F11000FFF7E9FC002802D05B
:10581000102007003BE0D8F82800002837D0DFF838
:105820008403D8F82C108861D8F83000D8F82C10F0
:10583000C861A869D8F82C100861D8F80000D8F819
:105840002C108860D8F834004168D8F83400027809
:105850000C20424301EB02000C3806007168D8F8B6
:105860000000091AB0684118D8F82C00C160D8F8B7
:105870002C00D8F8281088478DF8000000208DF8FB
:1058800000009DF80000002801D01020070038001B
:10589000C0B2002804D13D48016851F041010160C7
:1058A000002C02D09DF8000020703800C0B2BDE886
:1058B000F681000068C20000902E0020340C002009
:1058C000C02C0020282D0020F8B504000025B44E7F
:1058D000002086F8280002210220FFF7B5FE0028EC
:1058E00002D02420050032E0B04F786B007897F8A2
:1058F0003810884202D33120050028E0306B0028A0
:1059000005D1FFF797FC002801D0222005002800D0
:10591000C0B2002808D1210017F11000FFF79EFC4B
:10592000002801D0722005002800C0B200280ED146
:10593000607C00280BD0022086F828009E48617CFD
:105940000175FFF751F8002801D03120050028002B
:10595000C0B2002816D1300021001422FFF738F819
:10596000206870610020B0616068F061206830627A
:1059700060687062306BF062306B401C30630420F2
:10598000024908602800C0B2F2BD0000BC0B002034
:105990007C53002070C200007E53002024F30000DE
:1059A00040F200002DE9F047040000270C210820F8
:1059B000FFF74AFE002802D0242007005AE0FFF734
:1059C000BCF9DFF8FC8198F8000001281CD0DFF852
:1059D000D09199F81100002807D07B490120487622
:1059E000D9F82C207548FFF70CF9DFF8D0A1D9F8C9
:1059F0002C2077495046FFF704F9DAF80C0000280C
:105A000002D0052088F800000120FFF7A7FD98F8D4
:105A10000000012803D167480078070009E06049C9
:105A2000C869002801D0242007004A68C869121AF2
:105A300022603800C0B2002815D15C49486B42682A
:105A4000486B03780C20434302EB030006005448E4
:105A500002687260806830602068B060486B0078CF
:105A6000401C496B0870FFF7DAF805000220E86077
:105A7000FFF76DF93800C0B2002802D11220554955
:105A800008603800C0B2BDE8F0872DE9F047040097
:105A90000D0016005FF000085FF000090C210420E3
:105AA000FFF7D2FD002802D07120814609E03C4971
:105AB000487C002805D1B046486AB04201D2712026
:105AC00081464846C0B200282FD1FFF736F9320090
:105AD00029002000FFF76AFD81464846C0B2002831
:105AE00021D1DFF8BCA0DAF82400B0EB0800CAF836
:105AF0002400FFF794F807000220F8609AF81000DD
:105B0000002810D09AF8110000280CD13100DAF8E2
:105B10002000FFF7A7FAF9684018F860DAF82000CB
:105B20003018CAF82000FFF712F94846C0B2002822
:105B30000AD11B48406A002803D108202549086083
:105B400002E00C20234908604846C0B2BDE8F08757
:105B50007B10010038B51A4C2078052811D11E4D54
:105B6000012028702078052803D10020FFF794FC3D
:105B7000F8E72078032801D1022020700020287047
:105B8000FFE731BD0E480178022901DB05210170D4
:105B900070470B480178042901DB0321017070472D
:105BA000FC0B0020CB95FF1FD00B0020C00B00206A
:105BB000E82C0020B9530020102D0020902E00204A
:105BC000B85300207C2D0020502D0020B195FF1FE0
:105BD000C02C0020BC0B0020BA53002010B40C00D5
:105BE0000300002B03D05B1ED454240AF9E710BC39
:105BF000704730B40400220000200025002A05D0A0
:105C000000024B5D18436D1C521EF7E730BC704715
:105C1000FF20DFF8241608700020DFF82016087037
:105C20005FF0FF30DFF818160880DFF818160880DC
:105C30000020DFF814160880DFF81006DFF81016D1
:105C40000A6802604968416070472DE9F04104002C
:105C50002500DFF8F8653068854207D37068A842F0
:105C600004D3DFF8E405B0F900006CE0DFF8D47588
:105C700000203880DFF8DC85B7F9000098F80010C4
:105C800009B2884214DA387810F00F0F01D1FEF70C
:105C90008FFEDFF8BC05B7F900100C2211FB02F1F2
:105CA00008444068A84203D23888401C3880E1E7A5
:105CB000B7F9000098F8001009B288422FDA0C22D8
:105CC000DFF88C15B7F9000010FB02F00858854288
:105CD0000BD3B7F9000010FB02F3CB58336010FB75
:105CE00002F21144496871602AE05FF0FF30B7F9B1
:105CF0000030012B02DA0023336008E0B7F90030EE
:105D000013FB02F30B4453F8083C5B1C3360B7F9F8
:105D1000003013FB02F28958491E716010E05FF0F9
:105D2000FF30DFF82C2598F800300C214B4302EBB4
:105D3000030151F8081C491C31605FF0FF317160AC
:105D4000DFF80415088000B2BDE8F08170B50400EA
:105D50000D0001262000FFF778FF0100080000B2C7
:105D6000002809D4DFF8E8040C2211FB02F21044E9
:105D7000007A2870002006003000C0B270BD2DE906
:105D8000F84F05000C0016005FF0010B002C05D148
:105D900031002800FFF7DAFF834636E02800FFF7DE
:105DA00054FF80466019401EFFF74FFF8146404672
:105DB00000B2002824D4484600B2002820D4002095
:105DC00083460C20DFF8881418FB00F20A44127A8C
:105DD000170018F1010292464A46534612B21BB20E
:105DE0009A420DDB3A001AFB00F30B441B7AD2B245
:105DF0009A4202D00120834602E01AF1010AEBE741
:105E00005846C0B2002800D137705846C0B2BDE82D
:105E1000F28F7CB504000D0016006B46320029009D
:105E2000200000F002F8009876BD2DE9FF4F83B006
:105E3000039D059C049E00270020ADF80000FEF79E
:105E4000B7FDDFF8FC832800FFF7FFFEA8F800008D
:105E5000B8F9000000282BD5DFF8E803B0F90010EE
:105E6000DFF8F023127812B2914221DA0C21DFF828
:105E7000E023B0F9003013FB01F3D3589D4217D251
:105E8000B0F9003013FB01F3D3585B1BA3420FD2D0
:105E90000088A8F80000B8F9000010FB01F01058C5
:105EA000241A2C19B8F9000010FB01F01058050055
:105EB000B8F900B0B8F90000002859D4002C59D026
:105EC0005FF00C09DFF888A3B8F9000010FB09F0B7
:105ED000504440686119491E884224D2B8F9000034
:105EE00010FB09F050444068401B401C01901BF11E
:105EF000010B5846D749097800B209B288420FDA37
:105F00001BFB09F05AF80000401BA04206D21BFB05
:105F100009F05AF80000241A2C1907E0002405E0C3
:105F20000020040002E00194002004002A000199EE
:105F3000300000F09DF8002804D0E52810D1E520BD
:105F4000ADF80000A8F800B001980644B8F90000C8
:105F500010FB09F05AF8000005000198C71904E089
:105F6000002004000120ADF80000FEF721FDA5E7A8
:105F70000020070006980760BDF8000007B0BDE8E4
:105F8000F08FAD4B1870AD4B19707047FF21AA4AC6
:105F900011700021A94A117070472DE9F8430500DE
:105FA000002600273800AC490978C0B2884228D2C0
:105FB0005FF01C08DFF8A4923800C0B208FB00F0C4
:105FC0004844C27D01213800C0B2FFF7DAFF280043
:105FD0003900C9B208FB01F159F8011088470400E3
:105FE0003800C0B208FB00F809EB0800C07DFFF7DD
:105FF000CDFF200080B2002801D0260001E07F1CE8
:10600000D0E7300080B2BDE8F2832DE9F041040012
:1060100000250026300090490978C0B2884223D27A
:106020001C27DFF838823000C0B278434044027E3B
:1060300002213000C0B2FFF7A4FF20003100C9B236
:10604000794341444968884705003000C0B207FBE6
:1060500000F708EB0700007EFFF798FF280080B2EA
:10606000002801D1761CD5E7280080B2BDE8F08178
:106070002DE9F14F0C0015000126714FB7F9000012
:1060800000283DD4B7F900007249097809B2884266
:1060900036DA5FF01C085FF00C09DFF8B4A1DFF816
:1060A000BCB1B7F9000010FB09F05044007A08FBBE
:1060B00000F05844C27E0621B7F9000010FB09F039
:1060C0005044007AFFF75DFF2A0021000098B7F9DD
:1060D000003013FB09F353441B7A08FB03F35B44C2
:1060E0001B6998470600B7F9000010FB09F05044FF
:1060F000007A08FB00F80BEB0800C07EFFF746FFB4
:10610000300080B2BDE8F28F2DE9F14F0C00150090
:1061100001264B4FB7F9000000283DD4B7F9000025
:106120004C49097809B2884236DA5FF01C085FF002
:106130000C09DFF81CA1DFF824B1B7F9000010FB4F
:1061400009F05044007A08FB00F05844827E032195
:10615000B7F9000010FB09F05044007AFFF711FF77
:106160002A0021000098B7F9003013FB09F35344CB
:106170001B7A08FB03F35B44DB6898470600B7F91A
:10618000000010FB09F05044007A08FB00F80BEB0C
:106190000800807EFFF7FAFE300080B2BDE8F28F83
:1061A0002DE9F84F04000D000126254FB7F9000036
:1061B00000283CD4B7F900002649097809B2884282
:1061C00035DA5FF01C085FF00C09DFF884A0DFF817
:1061D0008CB0B7F9000010FB09F05044007A08FBBE
:1061E00000F05844427E0421B7F9000010FB09F08A
:1061F0005044007AFFF7C5FE29002000B7F90020BF
:1062000012FB09F25244127A08FB02F25A449268D5
:1062100090470600B7F9000010FB09F05044007ADF
:1062200008FB00F80BEB0800407EFFF7AFFE3000E4
:1062300080B2BDE8F28F0000BB530020BC530020A9
:106240007E5300208253002080530020502F0020D6
:1062500040F200007B1001007C10010024F30000DC
:1062600080B500F001F801BD38B500241E48007863
:10627000012832D11D48016889052ED5016831F405
:106280000071016054F00204194D2888002810D0D4
:106290002888401E2880288840F6C411884208D2E9
:1062A00014480068C00504D505F0A0F841F2883014
:1062B0002880114D287800280BD02878401E28709F
:1062C0002878002805D100F057F90120287054F0F3
:1062D000030405F08FF800F007F905F0C8F800F0A6
:1062E0000EF92000C0B232BDBD5300200060024054
:1062F000845300209C0A0020BE530020DFF800F0E9
:106300005FC50100DFF800F0FBC50100DFF800F019
:1063100061C4010010B50400207B012806D160682B
:10632000002803D10F482060182060600021200061
:10633000FFF7E4FF10BD10B5040000212000FFF7B7
:10634000E1FF10BD18B593B004000748009003A802
:1063500001900220029069462000FFF7D7FF14B099
:1063600010BD0000544E00205C8FFF1F13B4009836
:106370003F4988420CD03F4988421FD03E4988425D
:1063800032D03E49884245D03D49884258D06CE0E1
:106390001000C0B2002808D03A490B6801249DF9CA
:1063A0000400844023430B6007E036490B68012456
:1063B0009DF904008440A3430B6056E01000C0B276
:1063C000002808D030490B6801249DF9040084405E
:1063D00023430B6007E02C490B6801249DF904005E
:1063E0008440A3430B6040E01000C0B2002808D0F6
:1063F00026490B6801249DF90400844023430B6067
:1064000007E022490B6801249DF904008440A3435E
:106410000B602AE01000C0B2002808D01C490B68AD
:1064200001249DF90400844023430B6007E01849D0
:106430000B6801249DF904008440A3430B6014E021
:106440001000C0B2002808D012490B6801249DF941
:106450000400844023430B6007E00E490B680124CD
:106460009DF904008440A3430B6013BC70470000F7
:106470000090044000A0044000B0044000C004406C
:1064800000D0044000F00F4040F00F4080F00F407B
:10649000C0F00F4000F10F40DFF800F0017901007B
:1064A000DFF800F0996D0100DFF800F0616A01008B
:1064B000DFF800F0496E010010B51A4C61682068E1
:1064C00041186160FEF750FA2060002010BD80B5D1
:1064D000FFF7E2FF012806D1FFF7E2FFFFF7E4FF35
:1064E00000201149087001BD10480078002805D12E
:1064F0000F480078002801D00E480078704780B51A
:106500000A48007800280BD109480078002803D0F9
:1065100008480078002803D0FFF7D9FFFFF7C8FF2D
:1065200001BD0000A4510020E3530020E0530020EF
:10653000DE530020DF53002070477047704780B55E
:1065400000220121012000F001F801BD81B00023EB
:106550008DF800309DF80030002BFBD001B0704763
:106560007047704770477047704770477047704773
:10657000704770477047704770470000F8B50400D7
:106580000D0000270020287000262000C0B200F077
:1065900025F8012803D10220060001202870DFF829
:1065A000AC022100C9B2405C002803D002200600E2
:1065B000012028703000C0B2002806D0DFF8900219
:1065C0002100C9B2405C022805D1DFF88402210015
:1065D000C9B2405C06003000C0B2F2BD030000202A
:1065E0000022002A0CD1DFF86C12895C002905D04A
:1065F0000100C9B2002901D101210800521CF0E7B5
:10660000C0B2704710B5040002212000C0B200F0F3
:1066100001FF0220DFF838122200D2B2885410BDE8
:106620007047704770470021DFF82C220300DBB26F
:10663000D154704770477047704730B40020DFF87E
:106640001C12DFF81C2212780A7000224A800022F5
:106650001300DBB2002B24D10023DFF8F441150036
:10666000EDB263550023DFF8F0411500EDB263553C
:106670000023DFF8F0411500EDB263550023DFF889
:10668000E8411500EDB263550023DFF8C041150065
:10669000EDB2635502231400E4B20C442371521C82
:1066A000D6E700210B00DBB2002B07D10023DFF877
:1066B000A4410D00EDB26355491CF3E70123DFF857
:1066C000AC41237030BC70470020DFF8A011087087
:1066D000704710B40022644B0400E4B2195510BC9A
:1066E00070477CB5040000256048007801280FD170
:1066F000FFF740FF69462000C0B2FFF73FFF0600EA
:106700003100C9B22000C0B200F003F8FFF733FF38
:1067100073BD2DE9F04104000D002F00DFF8388132
:1067200053493A00D2B20520424301EB0200210056
:10673000C9B218F80110405C06002000C0B218F879
:106740000000052835D23000C0B2052831D2200023
:10675000C0B218F8000001280ED13000C0B20228E3
:106760000AD341482100C9B2405C002804D120006E
:10677000C0B218F80000070038002100C9B218F8AC
:106780000110C0B2884219D02000C0B2394A33008B
:10679000DBB214214B4302EB03012200D2B218F802
:1067A000022051F8221088472000C0B208F800608B
:1067B00004E02000C0B218F8000007002000C0B2BA
:1067C00018F800003900C9B28842A7D1BDE8F081AD
:1067D00030B4002200210B00DBB2002B0CD11E4B89
:1067E0000C00E4B21B5D9B0704D40223184C0D007F
:1067F000EDB26355491CEEE730BC704770B506003A
:106800000C00002517483100C9B2415C2278914242
:1068100019D021783200D2B28154207800280DD0CE
:10682000022801D005D30EE03000C0B205F0ADFA69
:1068300009E03000C0B205F09CFA04E03000C0B2BC
:1068400005F08BFAFFE770BD00000000D653002072
:10685000A9530020D7530020A8530020440A002049
:106860006E92FF1FA6530020A7530020A5530020BF
:10687000848CFF1FA08CFF1FF8B504000D000026BC
:1068800001272900201DC0B2AE4AAF4BA4465FFAD3
:106890008CFC13F80C3052F823209047C0B2F2BDA4
:1068A0002DE9FE4F04000D0016001F005FF00008E8
:1068B0005FF001098DF80440A4489DF8041000EB36
:1068C000810090F802A0A2485146C9B200EB8100B5
:1068D00090F801B05FF0060CDFF878E23B00320080
:1068E00092B229005846C0B20CFB00F01EF800001E
:1068F00000900D0098485946C9B20CFB01F1714453
:10690000097949010844D0F810C029000098E047EF
:10691000C0B2BDE8FE8F2DE9F84F04000D0016004F
:1069200000275FF001088DF8004088489DF80010AE
:1069300000EB810090F8029085484946C9B200EB0F
:10694000810090F801A00623DFF808C23200290078
:106950005046C0B258431CF80000DFF8FCE1D346B3
:106960005FFA8BFB03FB0BF363441B795B017344FE
:106970009B689847C0B2BDE8F28F2DE9F843814685
:106980000C0015001E0000275FF0010833002A00EC
:1069900021007248CC465FFA8CFC00EB4C0040783A
:1069A00000F09FF9C0B2BDE8F2832DE9F84305007D
:1069B000894600242E0065483100C9B200EB8100F1
:1069C000877863483900C9B200EB810090F80180F4
:1069D0000622604B4946C9B24046C0B25043185CDB
:1069E000DFF874C1C6465FFA8EFE02FB0EF21A444F
:1069F00012795201624452699047BDE8F18370B543
:106A000004000D0000262900C9B254482200D2B269
:106A100000EB4200407800F033F970BD2DE9F84FEB
:106A2000050088461600002401274D482900C9B2F8
:106A300000EB410040788DF8000045489DF80010BB
:106A400000EB810090F8029040484946C9B200EB43
:106A5000810191F801A0404B5146C9B24901595CEE
:106A6000890714D54946C9B200EB810090F803B0FC
:106A7000320092B24146C9B25846C0B2D4465FFA1B
:106A80008CFC5FEA4C1C63445B6898470700380045
:106A9000C0B2BDE8F28F0020704730B4002100285A
:106AA00002D00B23190011E000231A001300DBB2FF
:106AB000002B08D10023224C1500EDB254F82540DC
:106AC0002370521CF2E701231C4C237030BC70472A
:106AD00038B50400002519480078002802D10420A8
:106AE000050010E0FFF7D7FF1549C0B251F82000AC
:106AF0000078002802D00320050004E0FFF7CBFF58
:106B0000C0B200F001F831BD01210D4A0300DBB233
:106B100052F823201170704710B4020000200D4B72
:106B2000062404FB02F423445B790B60C0B210BC62
:106B3000704700200149087070470000DA530020B8
:106B4000048FFF1FF48EFF1F6892FF1FDC8EFF1F54
:106B5000A08EFF1FB88EFF1F608EFF1F008FFF1FCC
:106B6000F88EFF1F38B504000D002E482100C9B271
:106B700050F83100804731BD38B504000D00294878
:106B80002100C9B200EBC1004068804731BD38B573
:106B90000400254810F82410CD1E2900C9B2234A4C
:106BA00000EB840043780620434302EB0300807827
:106BB000FFF7D8FF31BD38B504001B4810F824108A
:106BC000CD1E2900C9B2194A00EB84004378062083
:106BD000434302EB03008078FFF7CEFF31BD38B5A9
:106BE00004000620114A00FB04F111448D782900AD
:106BF000C9B200FB04F010448078FFF7B3FF31BD49
:106C000038B504000620094A00FB04F111448D78D0
:106C10002900C9B200FB04F010448078FFF7ACFFF4
:106C200031BD0000588EFF1FA08EFF1FB88EFF1FC2
:106C30002DE9F04104000D0001262000FFF7A7FF19
:106C40005E4800EB8400477806225D4B290038003F
:106C5000C0B25043185CDFF86CC1BE465FFA8EFECE
:106C600002FB0EF21A44127952016244D269904733
:106C700080462000FFF79FFF4046C0B2BDE8F0818C
:106C8000F8B504000D002000C0B2FFF7A8FF694668
:106C90002000C0B2FFF740FF00281DD147480099EF
:106CA00000EB8101C978062916D1009900EB81001B
:106CB0008678454A2900C9B23000C0B202EB800094
:106CC000C078404B3700FFB202EB87025278520186
:106CD0001A4492699047FFE72000C0B2FFF790FF87
:106CE000F1BD2DE9FC470400894615001E0001276F
:106CF0002000C0B2FFF773FF69462000C0B2FFF763
:106D00000BFF002826D12D48009900EB8101C9789E
:106D100006291FD1009900EB810090F80280DFF86E
:106D2000A8C033002A0049464046C0B20CEB8000A0
:106D3000C078DFF890E0C2465FFA8AFA0CEB8A0C62
:106D40009CF801C05FEA4C1CF444DCF80CC0E0473E
:106D50000700FFE72000C0B2FFF752FF3800C0B2C3
:106D6000BDE8F6872DE9F84304000D000126164F13
:106D700007EB840090F8028007EB84008078401CC9
:106D8000C0B2804515D20D4800EB880090F8019004
:106D90000B48062101FB09F108444078012805D180
:106DA00029004046FFF744FF3040060018F1010873
:106DB000E2E73000C0B2BDE8F2830000A08EFF1F02
:106DC000B88EFF1F608EFF1FDC8EFF1F012A06D0CA
:106DD00006D3032A01D001D302E081704170017013
:106DE0007047012A4CD04CD3032A47D047D3052AF9
:106DF00042D042D3072A3DD03DD3092A38D038D3D8
:106E00000B2A33D033D30D2A2ED02ED30F2A29D0DC
:106E100029D3112A24D024D3132A1FD01FD3152AF3
:106E20001AD01AD3172A15D015D3192A10D010D377
:106E30001B2A0BD00BD31D2A06D006D31F2A01D044
:106E400001D31EE0817741770177C1768176417663
:106E50000176C175817541750175C1748174417484
:106E60000174C173817341730173C1728172417284
:106E70000172C171817141710171C1708170417084
:106E8000017070472DE9F84304000F00150000263B
:106E90003800C0B2B8465FFA88F85FEA084858EA96
:106EA00000683800C0B258EA00283800C0B250EA82
:106EB0000808A946B9F1100F11D344F8268004EB55
:106EC0008600C0F8048004EB8600C0F8088004EB5C
:106ED0008600C0F80C80361DB9F11009EAE7484673
:106EE000401E022811D9C01E03280BD9001F0328F9
:106EF00005D9001F032810D844F82680761C44F8D2
:106F00002680761C44F82680761C19F0030239008E
:106F1000C9B204EB8600FFF759FFBDE8F183012AEF
:106F200008D009D3032A01D002D305E08B788370FF
:106F30004B7843700B7803707047012A6AD06BD38B
:106F4000032A63D064D3052A5CD05DD3072A55D0C9
:106F500056D3092A4ED04FD30B2A47D048D30D2AF7
:106F600040D041D30F2A39D03AD3112A32D033D36B
:106F7000132A2BD02CD3152A24D025D3172A1DD081
:106F80001ED3192A16D017D31B2A0FD010D31D2AAF
:106F900008D009D31F2A01D002D33DE08B7F83772D
:106FA0004B7F43770B7F0377CB7EC3768B7E8376D5
:106FB0004B7E43760B7E0376CB7DC3758B7D8375CD
:106FC0004B7D43750B7D0375CB7CC3748B7C8374C5
:106FD0004B7C43740B7C0374CB7BC3738B7B8373BD
:106FE0004B7B43730B7B0373CB7AC3728B7A8372B5
:106FF0004B7A43720B7A0372CB79C3718B798371AD
:107000004B7943710B790371CB78C3708B788370A4
:107010004B7843700B78037070472DE9F84F0700E9
:10702000884691465FF0000ACB46BBF1100F1FD394
:1070300058F82A00009008EB8A004068040008EB2A
:107040008A008068050008EB8A00C0680600009886
:1070500047F82A0007EB8A00446007EB8A00856046
:1070600007EB8A00C6601AF1040ABBF1100BDCE7DB
:107070005846401E02281AD9C01E032811D9001FE5
:10708000032808D9001F032819D858F82A0047F800
:107090002A001AF1010A58F82A0047F82A001AF1C2
:1070A000010A58F82A0047F82A001AF1010A1BF0D1
:1070B000030208EB8A0107EB8A00FFF730FFBDE807
:1070C000F18F30B40C00022C0AD0032C11D11468BB
:1070D0001D6844551C68641C1C601468240A1460F4
:1070E00014681D6844551C68641C1C601468240ADC
:1070F000146014681D6844551C68641C1C60146886
:10710000240A146030BC70472DE9FE4F04000D00C6
:1071100016001F00002000905FF00009B246BAF18F
:10712000200FC0F0128155F829000190BAF1040A2D
:107130006B4601AA39002000FFF7C3FF009804EB5B
:1071400000080020009019F10109032F45D1BAF180
:10715000100FC0F0CF8055F8293005EB8900D0F82A
:1071600004E005EB8900D0F808C005EB8900C16890
:10717000019A52EA03225FEA0E2050EA13605FEAA6
:107180000C2353EA1E635FEA012E5EEA1C6E8B46F7
:107190005FEA1B6BCDF804B0DDF800C048F82C2086
:1071A000DDF800C008EB8C0CCCF80400DDF800C062
:1071B00008EB8C0CCCF80830DDF800C008EB8C0C28
:1071C000CCF80CE0DDF800B01BF1040BCDF800B0FA
:1071D00019F10409BAF1100AB9E7022F45D1BAF141
:1071E000100FC0F0878055F8293005EB8900D0F8E2
:1071F00004E005EB8900D0F808C005EB8900C16800
:10720000019A52EA03425FEA0E4050EA13405FEAF5
:107210000C4353EA1E435FEA014E5EEA1C4E8B4666
:107220005FEA1B4BCDF804B0DDF800C048F82C2015
:10723000DDF800C008EB8C0CCCF80400DDF800C0D1
:1072400008EB8C0CCCF80830DDF800C008EB8C0C97
:10725000CCF80CE0DDF800B01BF1040BCDF800B069
:1072600019F10409BAF1100AB9E7BAF1100F41D3C4
:1072700055F8293005EB8900D0F804E005EB8900CA
:10728000D0F808C005EB8900C168019A52EA036290
:107290005FEA0E6050EA13205FEA0C6353EA1E2394
:1072A0005FEA016E5EEA1C2E8B465FEA1B2BCDF86F
:1072B00004B0DDF800C048F82C20DDF800C008EB71
:1072C0008C0CCCF80400DDF800C008EB8C0CCCF87A
:1072D0000830DDF800C008EB8C0CCCF80CE0DDF8D1
:1072E00000B01BF1040BCDF800B019F10409BAF19C
:1072F000100ABAE7F90011F01F01D1F12002BAF12A
:10730000040F15D355F82930DDF804E013FA02F024
:1073100050EA0E0E1800C8400190009848F820E08E
:107320000098401C009019F10109BAF1040AE6E73F
:10733000009808EB80000400002000906B4601AA32
:10734000D7F104012000FFF7BCFE524605EB89018E
:1073500000982044FFF7F1FDBDE8F78F2DE9F843D1
:1073600005000E001700A8465FF00009202F06D286
:107370003A003100C9B24046FFF733FD13E0D8F1BF
:10738000040414F00304002C07D022003100C9B219
:107390004046FFF71BFDA0443F1B3A003100C9B235
:1073A0004046FFF76FFDBDE8F1832DE9F84F060079
:1073B0000F009046B146BA465FF0000BB8F1200FBF
:1073C00005D2424651464846FFF7B7FD20E0DAF1C4
:1073D000040515F00305002D08D02A005146484643
:1073E000FFF79DFDAA44A944B8EB0508D9F10404B0
:1073F00014F00304002C05D1424651464846FFF7DD
:107400000CFE05E02300424651464846FFF77CFE4D
:10741000BDE8F18F38B504000D002900C9B2200085
:10742000C0B202F047FB31BD7047704770B5040031
:107430000D00012629002000C0B2FFF71DFAC0B2DE
:1074400070BD2DE9F04104000D0016001F005FF033
:1074500001083B00320092B229002000C0B2FFF7C1
:107460001FFAC0B2BDE8F081F8B504000D001600A7
:107470000127320029002000C0B2FFF74CFAC0B249
:10748000F2BD2DE9F04104000D0016001F005FF071
:1074900001083B00320029002000C0B2FFF76DFA5E
:1074A000C0B2BDE8F08138B504000D002900C9B2B2
:1074B0002000C0B2FFF779FA31BD38B504000D00E5
:1074C0002900C9B22000C0B2FFF799FA31BD70B5EA
:1074D00004000D001600320092B22900C9B220004B
:1074E000C0B2FFF79BFA70BD38B5DFF84C0D047CD5
:1074F00000252900C9B22000C0B200F0DEF8FF214B
:10750000DFF8382D0300DBB222F8231031BD7CB543
:107510000400002500208DF80400DFF8786D307934
:10752000ADF80000707910F00C007071684600F042
:10753000D1F88DF804009DF80400012817D16846A1
:1075400000F0D7F89DF8041008408DF80400684654
:1075500000F0F3F89DF8041008408DF80400684628
:1075600000F00BF99DF8041008408DF804009DF818
:107570000400012804D1707950F00400707105E016
:10758000707910F008007071052005009DF8040066
:1075900076BDF8B504000D0016003200D2B2290005
:1075A000C9B22000C0B200F095FC07003800C0B29C
:1075B000012817D0052004F043FB3200D2B2290085
:1075C000C9B22000C0B200F085FC0700052004F01D
:1075D00043FB012803D13800C0B20128EDD10520BA
:1075E00004F050FB3800C0B2032804D1DFF8A40C2B
:1075F00084714570C6713800C0B2F2BD70B5040028
:107600000D0016003000C0B201280FD1DFF8840C45
:10761000417911F00C012143417110218171290040
:10762000C9B2DFF84C0D007801F032FF70BD10B523
:107630000400002060700021207800F03EF8E07027
:1076400010BD70B504000125DFF8F00BE17830F8CB
:107650002110FF292CD1E17800EB810194F8202042
:107660008A700121E27820F82210200000F00BFA45
:10767000DFF8000D217E405C10F00F00A071606902
:1076800041F6FC7111EA8001A180200000F0FCF9B4
:10769000E069002804D0E069A060200000F013FA3F
:1076A000200000F0E7FA0600200000F0FBFA01E0FD
:1076B000022005002800C0B270BD10B40200DFF83F
:1076C000603D1400E4B209204443185D0818C0B2BC
:1076D00010BC704738B504000025200000F0A1F868
:1076E000012803D1200000F0ACF805002800C0B24A
:1076F00032BD70B504000125DFF83C0B007CA070A2
:10770000DFF81C1DA2780920424301EB0200C0787B
:10771000E0700021A078FFF7D0FF0600FF20DFF81F
:107720001C1B3200D2B221F82200200000F0FEF82B
:1077300001000D402800C0B270BDF8B5040001265C
:10774000DFF8F47A787BA070A078F97A884211D2B9
:10775000DFF8CC1CA2780920424301EB0200C0787C
:10776000E070200000F0FDF805002E40A078401CDD
:10777000A070E9E73000C0B2F2BD70B50400012589
:10778000200000F05DF906002E40200000F06EF9A8
:107790003040C0B270BD1CB500F03BFB01281DD1CC
:1077A000DFF8944A607B8DF800009DF80000E17AD4
:1077B000884213D2DFF8681C9DF80020092042435C
:1077C00001EB0200C0788DF80100684600F02EFB46
:1077D0009DF80000401C8DF80000E6E713BD38B5A9
:1077E000040000256368227CE168207A01F05EFCD9
:1077F0002800C0B232BD10B4040000202180C0B205
:1078000010BC70470160704710B404000020216074
:10781000C0B210BC704710B4019C0A80019410BC27
:10782000704738B50400208800F0EEFB0500280002
:10783000C0B2012802D100F088FC05002800C0B2C7
:1078400032BD2DE9F84F0400DFF8EC793D6897F878
:107850002000461EB879002801D056F40066009436
:1078600043F63F33320092B229000020FFF7D3FFE6
:10787000B5F802804DF6903010EA080858F0030879
:10788000009442F2EB43424692B2A91C0020FFF75B
:10789000C2FFDFF8B4AC20880AEBC000D0F8049037
:1078A00019F4025959F0400923005FF0FF324946AC
:1078B000281DFFF7A7FF23005FF0FF3220885AF84A
:1078C000301015F15000FFF79DFFB879002819D04E
:1078D000D7F800A01AF5406ADFF870BC23005FF00B
:1078E000FF3220880BEBC00041685046FFF78AFF4B
:1078F00023005FF0FF3220885BF830101AF104009B
:10790000FFF780FF97F817A05AF4070AB879002804
:1079100001D05AF4805A23005FF0FF32514615F12E
:107920003400FFF76FFF0120BDE8F28FF8B50400C7
:1079300000250126230040F67F724FF40061DFF836
:10794000100CDFF8F4783F7A94F803C01CEB0707BB
:1079500050F82700801CFFF74EFF36EA0000C0B247
:10796000F2BD2DE9FE4F05000020DFF8CC6831683C
:1079700011F50861019101275FF00008DFF8A01AF6
:107980004246AB780920434301EB03004079D2B271
:10799000824251D2E87818EB00000400DFF82C0C8A
:1079A0002A88825CA218737B0920434301EB030001
:1079B000C078121A8DF80020DFF8949BDFF810BC15
:1079C0002B005FF0FF329DF800005BF8301021F0D3
:1079D0006041307A50FA84F059F82000001DFFF71A
:1079E00013FF824637EA0A0A2B005FF0FF329DF848
:1079F00000000BEBC000017951F040410198A44612
:107A00005FFA8CFC00EB8C00FFF7FEFE83463AEA3F
:107A10000B0B2B0040F67F724FF48061307A50FAE6
:107A200084F059F82000801CFFF7E5FE3BEA0000D7
:107A3000070018F10108A1E73800C0B2BDE8FE8FC9
:107A400070B50400DFF8F0170E68DFF8480880789A
:107A5000002809D1887A050023005FF0FF32290051
:107A600016F12800FFF7CEFE012070BD01000120B5
:107A700070470120C0B270470120DFF8B81C0870C1
:107A8000012070477047704770B48378DFF8444B2B
:107A9000DFF8BC5A217A51FA83F155F82110828817
:107AA00012044A60827912F06F0252F400628689F1
:107AB000C1890E433243217A51FA83F155F82110DE
:107AC0004A8070BC70472DE9F04390B001008A787D
:107AD0000B7CDBB29B080C7C14F00304887C8D7C4F
:107AE0002D0455EA0065887C55EA0025887C05430D
:107AF00000275FF0000C60469E46C0B25FFA8EFE23
:107B000070452BD28868BE465FFA8EFE10F80E00D4
:107B1000D1F808E0B8465FFA88F8C6449EF801E05C
:107B20005FEA0E4E5EEA006E8868B8465FFA88F833
:107B3000404480785EEA002E8868B8465FFA88F88C
:107B40004044C07850EA0E0E6846E0465FFA88F876
:107B500040F828E03F1D1CF1010CCCE72000C0B22A
:107B600000284ED0EE460020E0465FFA88F84EF836
:107B70002800B84640460E7CC0B2B0421AD26046D9
:107B8000C0B25EF8200000026646F6B24EF826004B
:107B90006046C0B25EF820608868C1465FFA89F925
:107BA00010F8090006436046C0B24EF8206018F194
:107BB0000108DFE70E7CB0465FFA88F891F8109074
:107BC00019F104092000C0B2B9EB0009C84516D26A
:107BD0006046C0B25EF820000002E0465FFA88F816
:107BE0004EF828006046C0B25EF82080887C50EADB
:107BF00008086046C0B24EF82080761CDBE71CF116
:107C0000010C487CC01C8008E64676468046F6B2E9
:107C10005FFA88F8464508D26E46F0465FFA88F863
:107C200046F828501EF1010EEFE70026B6468046C2
:107C30005FFA8EFE5FFA88F8C64518D2DFF810E9C1
:107C4000DFF8908998F8088058FA82F85EF828E002
:107C5000B0465FFA88F80EEB880EE846B1465FFA48
:107C600089F958F82980CEF80880761CDEE710B034
:107C7000BDE8F08310B401008A78DFF8BC05DFF8B6
:107C8000D038047A54FA82F453F82440007A50FA37
:107C900082F053F82000408850F444606080012056
:107CA00010BC70477047DFF8CC2B13680020196BAD
:107CB00092F821201140002901D001221000C0B209
:107CC00070472DE9F041040000256678DFF8A40B29
:107CD000D0F800803100C9B2404600F057FB0700E1
:107CE00016F01F003900C140C80706D53200D2B2D5
:107CF0002900C9B2207800F052FB761CBDE8F08163
:107D000038B50400DFF86C0B0568A178280000F096
:107D100033FB31BD70472DE9F84F0400DFF81855EB
:107D20002E6801275FF00108FEF71AFCDFF8649562
:107D3000DFF81CA8287A617808185AF820004088D3
:107D4000A9F83000B9F83000C00519D5022003F0B9
:107D500077FF287A617808185AF820004088A9F837
:107D60003000022003F078FF8046B9F83000C005EB
:107D700003D54046C0B20128EBD0022003F082FFB9
:107D8000287A617808185AF820004068C9F8340049
:107D90005FF0000B59466A7AC9B291421ED2297A25
:107DA000627851185AF821105A46D2B201EB82017A
:107DB000896808000100090A11F47F4151EA106145
:107DC000020212F47F02114351EA00615A46D2B214
:107DD00009EB820291631BF1010BDBE76178300054
:107DE00000F0CAFAB068A9F83200FEF7BAFB4046C4
:107DF000C0B2012801D00020070019F130006060F6
:107E000019F13800A0603800C0B2BDE8F28F7047A9
:107E100070470020DFF820241368196B927E114010
:107E2000002901D001221000C0B270472DE9F041B5
:107E30000500DFF80404066800275FF000084146EB
:107E4000DFF8DC252B780920434302EB030040795F
:107E5000C9B2814218D2687818EB000004002100F2
:107E6000C9B2300000F092FA070014F01F00390088
:107E7000C140C80705D56C702100C9B2287800F050
:107E8000D1FA18F10108DAE7BDE8F081704730B4A3
:107E9000DFF8A423116800200B6A5B0716D50623C0
:107EA0000B62537F1C0092F82050E4B2AC420BD21C
:107EB000DFF89C46157A55FA83F554F825404FF4BF
:107EC000006565805B1CEDE701221000C0B230BC8C
:107ED00070477047F8B504000D0016000027200019
:107EE000C0B203280ED0042806D0052812D00928D5
:107EF00018D00A2819D01EE03000C0B2FFF707FBE7
:107F0000070018E03100C9B22800C0B200F05AF9E9
:107F1000070010E03100C9B22000C0B200F090F9B3
:107F2000070008E00120070005E03000C0B200F0C3
:107F3000B3F90700FFE73800C0B2F2BDF0B400208B
:107F4000BD4A13685FF0FF341C6307241C625C6841
:107F500034F040045C60547F250092F82060EDB25C
:107F6000B5420BD2DFF8E855167A56FA84F655F882
:107F700026504FF400666E80641CEDE7557B2800A8
:107F8000D67AC0B2B0423BD200200100DFF8906444
:107F90000F00AC465FFA8CFC092000FB0CFC06EBE2
:107FA0000C004079FFB2874228D22F00FFB209208F
:107FB000474306EB0700C07808180400DFF8900577
:107FC000167A56FA84F650F82660177A57FA84F72C
:107FD00050F827707F8817F0F0077780167A56FAE6
:107FE00084F650F82660177A57FA84F750F827007D
:107FF000408850F480607080491CC7E76D1CBEE764
:10800000F0BC7047704770472DE9F041040001252E
:1080100001268948076848F61000798801408142A6
:1080200003D0386A800600F18C80788848F210010D
:10803000084251D1788850F480407880788850F494
:10804000805078804DF61018788818EA0000B0F556
:10805000B24F1ED0032003F0F3FD032003F0FCFD1C
:108060000500788818EA0000B0F5B24F03D0280068
:10807000C0B20128F1D0032003F004FE2800C0B2F2
:10808000012806D0DFF8AC060078012801D10020D5
:108090000600788850F4004078807888C0061BD4A9
:1080A000012003F0CDFD012003F0D6FD0500788806
:1080B000C00603D42800C0B20128F4D0012003F088
:1080C000E1FD2800C0B2012806D0DFF8680600787C
:1080D000012801D100200600DFF86C04210089B2DC
:1080E00000EBC1004068800404D5786850F400506B
:1080F000786003E0786830F4005078607888400455
:10810000400C78807888C0061BD5002003F098FDCD
:10811000002003F0A1FD05007888C00603D52800E3
:10812000C0B20128F4D0002003F0ACFD2800C0B29A
:10813000012806D0DFF8FC050078012801D10020D5
:1081400006003000C0B2BDE8F08170B50124012501
:10815000394806684FF4007070807088800510D52B
:10816000042003F06DFD042003F076FD0400708808
:10817000800503D52000C0B20128F4D0042003F00C
:1081800081FD2000C0B2012806D0DFF8A8050078E4
:10819000012801D10020050071884FF67F70014051
:1081A00071802800C0B270BD38B50400DFF8845576
:1081B000002028702000C0B2FFF7A9F90121297022
:1081C000C0B232BD70B504000D001B490E680868CE
:1081D000006A80060AD52000C0B2002801D1002024
:1081E00028E02800C0B2FFF7DFFF23E008684288DC
:1081F0004DF610100240B2F5B24F05D1FFF79EFECA
:10820000FFF772F9012015E00868408810F450402B
:10821000B0F5A04F01D103200CE070884004400C61
:108220007080708850F480407080708850F4805066
:1082300070800320C0B270BDD08DFF1F183C00209D
:1082400030B40200DFF82C060368046864884DF639
:1082500010152C4201D1012019E00068408810F46B
:10826000504F01D1032012E058884004400C588040
:108270005C884EF6FF7004405C805C884BF6FF70B3
:1082800004405C80586850F0400058600320C0B241
:1082900030BC70471C3C002038B50400DFF8D40522
:1082A00005680168096A89061CD50168496849069C
:1082B00003D5696831F0400169600068408810F4B6
:1082C000504F0DD068884004400C688069884EF695
:1082D000FF700140698069884BF6FF70014069803A
:1082E000032042E0016849884DF61012114222D164
:1082F0000068406840061CD42000C0B2FFF754FF5D
:108300000100C9B2012930D169884904490C69804A
:108310006A884EF6FF710A406A806A884BF6FF71E0
:108320000A406A80696851F04001696003210800D1
:108330001BE0012019E00068408810F4504F01D183
:10834000032012E068884004400C688069884EF67B
:10835000FF700140698069884BF6FF7001406980B9
:10836000686850F0400068600320C0B232BD000071
:108370006B92FF1F108CFF1F0A00D2B2202A04D27A
:10838000012311F01F029340036370470200002095
:108390000B00DBB2202B01D2136B1800704770B5B5
:1083A00004000D001600002000F0A2F93200D2B245
:1083B0002900C9B22000C0B200F004F8002000F08B
:1083C000A6F970BD2DE9FC4104000D001600002740
:1083D0008DF800408DF801508DF802609DF8011075
:1083E0009DF80000FFF769F98DF803006846FFF774
:1083F00087FCDFF8A4049DF8031000EB810191F8DD
:108400000280FF219DF8032020F822104046C0B2D0
:1084100000F033FD6846FFF77DFCBDE8F381000006
:10842000208EFF1F38B504000D00002000F060F919
:108430002900C9B22000C0B200F004F8002000F00A
:1084400066F931BD70B586B004000D0000268DF8C8
:1084500000408DF801506846FFF75DFC012839D1D6
:10846000DFF838040199098811F00F01405C8DF89C
:10847000140001984068800C4005400D049001985C
:108480000088000403D5049850F4804004900198BB
:108490000088000406D49DF81400092802D30320A4
:1084A000060017E0DFF8F8139DF80020092042438A
:1084B00001EB0200C0799DF81410884202D203201B
:1084C000060007E09DF800008DF80C0001A8FFF7FA
:1084D00086F906006846FFF79AFC6846FFF798FCA5
:1084E00006B070BD38B50024FFF7D0FCFFF7CFFC15
:1084F00001281CD1DFF8AC53E878002817D1FEF72B
:1085000031F8032028700120E870002200210920A2
:10851000FFF73FF8687910F00C0050F00200687126
:10852000FEF721F8DFF88003007800F07DFEFFF70A
:10853000D0FC31BD10B5DFF8744300202070FFF788
:10854000A1FA2078207010BD108EFF1F188EFF1F1B
:10855000F48DFF1F70B506000024DFF8580305688E
:108560000020DFF854130870FFF783FA01282BD19D
:108570000420DFF838130870DFF8286300207071DA
:108580001020B071012070700020F0710020307058
:108590000020F0700020B070FFF76EFA012813D1B0
:1085A000DFF80C030178B348C0794118317101221A
:1085B00001210420FEF7EDFF0100C9B2012903D11A
:1085C000717951F00201717170BD00006C92FF1F52
:1085D000008EFF1FD08DFF1F2DE9F84F04000D0006
:1085E0005FF000085FF000095FF0000AFDF7BAFFD6
:1085F0002800C0B2002805D0022862D029D3032861
:1086000048D067E0DFF89CB29BF80300002802D056
:108610000A20060001E005200600002007000020D7
:108620008DF800009DF800203900C9B23000C0B2BA
:10863000FEF7AFFF81464846C0B2012802D10020B4
:108640008BF803004A46D2B202210120FEF7D6FF82
:1086500042E00320060093490878002802D1012057
:10866000070004E00878401E087000200700002082
:108670008DF800009DF800203900C9B23000C0B26A
:10868000FEF787FF81464A46D2B201210220FEF75B
:10869000B5FF21E00320060000208DF80000012036
:1086A00007009DF800203900C9B23000C0B2FEF7C3
:1086B00070FF81464A46D2B201210220FEF79EFF9A
:1086C0000AE0012081464A46D2B203218020FEF70B
:1086D00095FF01E006208246FDF745FF4846C0B2FF
:1086E000002801D0012080464046C0B2BDE8F28F8C
:1086F00070B5040000256B4EB078002803D116F148
:108700000C00FFF77FFCB078401CB07070BD38B52E
:10871000040000256349887800280AD08878401E24
:1087200088708878002804D111F10C0007C8FFF781
:108730006AFC31BDA1530020F0B589B004000D00E2
:10874000002600275749C878002801D0002056E0AD
:108750008DF80040524A2300DBB20920434302EB6C
:108760000300C0788DF802002868059028798DF8FC
:108770001800A8680790287B8DF820009DF8180045
:10878000092808D24D480B79C05C002803D1059810
:108790004005400D05900020ADF80E0005984004FE
:1087A0000DD54FF40040ADF80C0044480979405C09
:1087B000012807D14FF48040ADF80E0002E0002000
:1087C000ADF80C009DF818008DF8100033483C49B6
:1087D0009DF81030C95C11F00F01405C8DF811005C
:1087E0009DF800100920414302EB010080788DF8CC
:1087F00012006846FEF71BFF6846FEF722FFC0B274
:1088000009B0F0BD38B500242648407900061FD4D1
:10881000FFF749FA01281BD1164D287C8DF800007E
:108820009DF80000A97B884212D21D499DF80020C6
:108830000920424301EB0200C0788DF80100684630
:10884000FFF73FFA9DF80000401C8DF80000E7E7B5
:1088500031BD38B50024184D2878002809D10120F1
:10886000287010484079000601D4FEF794FF0020DC
:10887000287031BDD08DFF1F10B500240948407904
:10888000000607D40020FFF733FFFFF72BFE002080
:10889000FFF73DFF10BD0000183C0020008CFF1FBB
:1088A000208EFF1F1C3C00206B92FF1FA253002054
:1088B0006492FF1F548CFF1FA05300206D92FF1F76
:1088C000108CFF1F70B4030000220120DFF8A44BBE
:1088D000DFF8A45B1E00F6B20C214E4305EB060147
:1088E000CD7906214D4304EB0501CC78DFF88C5B94
:1088F000DFF88C6B1900C9B215F8111006EB4101B5
:108900004978002914D11900C9B215F8111006EBE5
:10891000410101254D70DFF86C1BDFF82C5C11F86C
:10892000246011F82410695C491CA9550021080035
:10893000C0B270BC704770B4020000230120DFF8A1
:10894000344BDFF8345B1600F6B20C214E4305EBD6
:108950000601CD7906214D4304EB0501C978DFF806
:108960001C4BDFF81C5B1600F6B214F8166005EB22
:1089700046067678012E14D11600F6B214F8164089
:1089800005EB440400256570DFF8F84ADFF8B85BB2
:1089900014F8216014F821402C5D641EAC550024AD
:1089A0002000C0B270BC70472DE9F041DFF8D85A02
:1089B0000600F6B205EB460676780700FFB215F81A
:1089C0001770BE423FD2DFF8C47ABF5D39005FF056
:1089D000060CDFF8A0EA0CFB01F77744FF780CFBEC
:1089E00001FCF4449CF804C0BCF1010F29D1DFF86C
:1089F00094CA0CEB870E9EF803E073460CEB870ECF
:108A00009EF801E0734512D2DFF840EB1EF803E058
:108A10007446DFF86CEADFF8648A18F814800EEB0D
:108A2000480E5FF000088EF801805B1CE6E71CF83A
:108A300027C062465FF0000CDFF80CEB0EF802C0B6
:108A4000FFE7761CB9E7BDE8F08170B506000024A9
:108A500000252800C0B2002812D12800C0B2FFF7BC
:108A6000A3FFDFF8EC0A01212A00D2B200F81210AD
:108A700000212A00D2B200EB420041706D1CE8E7F1
:108A800070BD38B50400012500212000C0B2FFF7F9
:108A9000A3FD012801D1002005002800C0B232BD8D
:108AA00038B50400012501212000C0B2FFF794FD74
:108AB000012801D1002005002800C0B232BD38B520
:108AC0000400012502212000C0B2FFF785FD012826
:108AD00001D1002005002800C0B232BD38B5040025
:108AE000012503212000C0B2FFF776FD012801D146
:108AF000002005002800C0B232BDF8B506000C0009
:108B000001252000C0B2012804D063D3032846D039
:108B10002DD35FE0DFF8387A3000C0B217F81000CC
:108B200001281DD022D3032801D006D31EE0300037
:108B3000C0B2FFF7D3FF050018E03000C0B2FFF766
:108B4000AFFF00280BD101203100C9B207EB410172
:108B500048703000C0B2FFF727FF0020050005E095
:108B60003000C0B2FFF79CFF0500FFE732E0DFF8FE
:108B7000E0093100C9B210F81100012802D0022822
:108B800006D00BE03000C0B2FFF77BFF050005E028
:108B90003000C0B2FFF775FF0500FFE71AE0DFF80D
:108BA000B0093100C9B210F81100012802D0032821
:108BB00009D00EE03000C0B2FFF781FF002801D1DC
:108BC0000020050005E03000C0B2FFF778FF050087
:108BD000FFE7FFE72800C0B2F2BDF8B504000D00C2
:108BE00001260027DFF868092100C9B210F811003A
:108BF00000280AD0FDF7B8FC2900C9B22000C0B295
:108C0000FFF77BFF0600FDF7B0FC3000C0B2F2BDFD
:108C100070B4030000200C24DFF85C581A00D2B2B4
:108C200062432A44527A0E79B24211D21A00D2B269
:108C300062432A445279002A08D01A00D2B204FBB7
:108C400002F405EB0402527A0A7101E001221000DD
:108C5000C0B270BC7047F8B50400DFF82008217B73
:108C600010F811502179DFF8182802F81510227930
:108C7000A168DFF8E038DFF8E068277B00EB470009
:108C800047780320474306EB070080781844FEF737
:108C90008CFBF1BDF8B5040001250026DFF8D817DC
:108CA000227B0C20424301EB0200C7790620DFF84B
:108CB000C41700FB07F20A44D278FF2A22D000FB37
:108CC00007F00844007901281BD1DFF88C18DFF881
:108CD000AC07227B00EB420042780320424301EBC9
:108CE000020040782179884208D32000FFF7B3FFC3
:108CF000207BFFF7E7FD0020050001E001200500D3
:108D000002E001E0012005002800C0B2F2BDF8B584
:108D100004000C26DFF860772100207B7043384484
:108D2000C079FFF709FD05002800C0B2022803D171
:108D30002000FFF7AFFF18E02800C0B2002801D1E3
:108D4000012012E0DFF82C17207B06FB00F607EB72
:108D50000600C2790620424301EB02000079012897
:108D600002D1207BFFF7E7FD0020C0B2F2BD2DE964
:108D7000FF4704000D00012600275FF00C09DFF813
:108D8000F8A62000C0B209FB00F0504490F806801D
:108D9000DFF8BC074146C9B210F81110022942D1D0
:108DA0004146C9B200EB41014978032906D041464A
:108DB000C9B200EB4101497802291CD1A8888DF87D
:108DC000040069462000C0B2FFF722FF00280FD13F
:108DD0002000C0B209FB00F95AF809000090286889
:108DE00002908DF80C406846FFF791FF060022E0E4
:108DF0005A2007001FE04146C9B200EB4101497803
:108E0000042906D04146C9B200EB4100407805284C
:108E100006D1002006002000C0B200F011F80AE0E0
:108E20004620070007E04146C9B210F811000128AA
:108E300001D1462007003000C0B204B0BDE8F08781
:108E4000F8B504000C20DFF830162200D2B24243FD
:108E50000A44157A2200D2B200FB02F008440679D7
:108E6000DFF8F8062900C9B250F821703800002850
:108E700002D03000C0B2B847F1BD70B50400002583
:108E80000C20DFF8F415DFF8C8262300DBB24343DB
:108E90000B449B7912F81330022B2AD12300DBB24A
:108EA00043430B449B7902EB43035B78032B09D0CC
:108EB0002300DBB243430B449B7902EB430252781D
:108EC000022A16D12200D2B200FB02F00844C67971
:108ED000DFF8A005062101FB06F10844C078FF2851
:108EE00003D03000C0B200F076FA2000C0B2FFF725
:108EF000A7FF70BD10B401000C22DFF864360879BA
:108F0000504318444068800026D4087950431858CC
:108F10000C68A04211D1087950431844C07A002847
:108F200006D0087950431844C07A8C79A04204D105
:108F300008794871002008720EE0087902FB00F2FF
:108F400003EB02004068400002D50020087203E0F5
:108F50000879401E0871CFE710BC704710B40200BA
:108F600000200C23DFF8F845117959432144C97AD0
:108F7000002908D0117903FB01F304EB0301C97A3E
:108F80009379994203D11179517101210800C0B23E
:108F900010BC704770B504000C25DFF8C46520795B
:108FA00068433044406810F0C040B0F1005F2FD1FA
:108FB000207968433058800012D5207968433158B1
:108FC00022682079684330444068024052F00052E1
:108FD000914219D12000FFF7C1FF012814D117E0F9
:108FE000206821796943715888420DD320796843FC
:108FF0003044406830F0C0402168884204D32000EB
:10900000FFF7ACFF012803D02079401E2071C3E791
:10901000207968433044406810F0C040B0F1C04F40
:109020002BD1207968433058800012D520796843CD
:1090300031582268207905FB00F506EB05004068F1
:10904000024052F00052914217D12000FFF786FFF4
:1090500013E0206821796943715888420DD3207943
:1090600005FB00F506EB0500406830F0C0402168C4
:10907000884202D32000FFF771FF70BD10B50400D5
:1090800001202072DFF8D81422790C20424301EB32
:1090900002004068800002D42000FFF72BFF207AF6
:1090A000012802D12000FFF775FF10BD2DE9FF4117
:1090B0000400884615001E0000275FEA480003D51B
:1090C00001208DF8060002E002208DF8060038F03D
:1090D0008048CDF800808DF80740DFF8980306211E
:1090E0002200D2B24A43024492788DF804209DF8BF
:1090F0000420FF2A25D0FF228DF805202200D2B2BD
:109100004A4302445279012A03D16846FFF726FFF9
:109110000AE02200D2B201FB02F1084440790028A3
:1091200002D16846FFF7AAFF9DF80500FF2808D086
:109130002B00DBB232009DF805102000C0B200F019
:109140002EF8BDE8FF812DE9FC4104000D0016005A
:109150000C20DFF80C242100C9B2414311444F7A9E
:10916000DFF800143B00DBB201EBC3031B79012BDA
:1091700013D100953300DBB2ADF804303B00DBB215
:1091800051F833804146002907D069462300DBB2FD
:1091900000FB03F01044007AC047BDE8F3812DE9DD
:1091A000F84304000D0016001F005FF00008B149ED
:1091B0002200D2B20620424311F80290DFF8900359
:1091C0004946C9B210F8111002292BD14946C9B23B
:1091D00000EB4101497803290DD04946C9B200EBA3
:1091E00041014978012906D04946C9B200EB410046
:1091F0004078052816D13900DFF864232B00DBB254
:109200000C20434302EB0300807AC9B2814202D2B0
:109210003D20804606E03A00D2B231002800C0B2BC
:10922000FFF791FFBDE8F183F8B504000025DFF8F2
:1092300038030668DFF818732000C0B217F8100072
:10924000002814D003212000C0B200F013F8012040
:109250002100C9B207F811002000C0B2FFF7A4FB3B
:109260003000002805D02000C0B2B04701E01E2029
:109270000500F1BD2DE9F84380460C0001250026CC
:10928000B34F4046C0B217F8100002283DD100206D
:109290000500DFF8D8924046C0B207EB40004178A5
:1092A0000720414309EB01002100C9B2405CFF28BF
:1092B0002BD02000C0B2002807D0032805D00428F6
:1092C00011D005280FD006280ED14046C0B207EBBA
:1092D00040004078801E012804D84046C0B2FFF705
:1092E00063FBFFE700E0FFE74046C0B207EB40004A
:1092F00041780720414309EB01002100C9B2405CDD
:109300004146C9B207EB410148702800C0B2BDE830
:10931000F2832DE9FF470400012500260C20564961
:109320002200D2B242430A44D7795FF00608DFF840
:10933000449108FB07F24A441279012A20D1220005
:10934000D2B200FB02F0085800904C484C49220071
:10935000D2B210F8122011F812108DF804107D49C5
:109360007D4A2300DBB200EB4300437803204343F4
:1093700002EB03008078084402908DF80C4003E073
:10938000002000902D20060069463800C0B2FFF78B
:10939000D3F982465046C0B201280ED108FB07F827
:1093A00009EB08000079012804D12000C0B2FFF7C2
:1093B000C2FAFFE70020050008E05046C0B20228CC
:1093C00002D10020050001E0352006002800C0B2CF
:1093D00004B0BDE8F0872DE9F84304005FF0010810
:1093E000062024492200D2B242430A4492F8039054
:1093F0002200D2B200FB02F008440079012826D1F5
:10940000204911F8290007004F48C05D00281DD0F1
:1094100001EB89004078401E060001EB8900C0780E
:10942000864213D34948805D05001548134A12F857
:10943000152000EB42004078002805D02800C0B27B
:10944000FFF767FF804601E0761EE6E7FFE740464C
:10945000C0B2BDE8F28300200100C9B2002907D1E3
:1094600000213B4A0300DBB202F81310401CF3E773
:10947000704700000C8DFF1F648DFF1F7C8DFF1F48
:10948000CC3A0020588DFF1F5C92FF1F6A92FF1F8D
:109490002DE9F0410500884600262D492800C0B27C
:1094A00011F8100000284CD047463800C0B20128FF
:1094B00004D03BD3032826D011D337E02800C0B214
:1094C00011F81000401E08D0401E012806D80120C7
:1094D0002A00D2B201F8120000E0FFE726E02800DF
:1094E000C0B211F81000012804D00BD3032808D013
:1094F00006D307E002202A00D2B201F8120001E0F0
:1095000000E0FFE712E02800C0B211F810000128C7
:1095100004D00AD3032801D006D306E003202A0092
:10952000D2B201F8120000E0FFE7FFE71048006840
:1095300004002000002804D03900C9B22800C0B2BD
:10954000A047BDE8F0810000D55300205E92FF1FC8
:1095500092530020D03A0020808DFF1F5C8DFF1FAA
:10956000288DFF1F188DFF1F048DFF1F588CFF1FB4
:10957000088DFF1F38B504000D0005210020FFF7FE
:1095800079FE31BD70B504000D001600E87A310097
:10959000C9B288421AD10120E872287B697B8842CF
:1095A00005D0687B2873297B002002F03BFC68799A
:1095B000A979884202D1E879012807D10020E87111
:1095C000A8796871691D0020FDF718F970BD38B5DC
:1095D00004000D00022068730220A871A97B2000FE
:1095E000C0B2FFF7C7FF112068724FF47A7028806D
:1095F00031BD03224A7301228A7100220A800322AC
:109600004A72704700224A7300220A8022224A725C
:1096100000224A74704738B50400DFF86015220054
:10962000D2B21220424301EB02050020A8720020B2
:10963000A8730020E8734FF6FF706880002028713F
:10964000002068710020A8710120E87200202873B2
:1096500000206873002068740020E8712900200051
:10966000C0B2FFF7CFFF31BD38B50400DFF80C15ED
:109670002200D2B21220424301EB02050020E87220
:1096800029002000C0B200F02DF90120E87231BDA0
:1096900010224A7200228A73704738B504000D0008
:1096A0000020A872287910F07F00287128790028FE
:1096B00004D1602068720020288017E0A87B002871
:1096C00005D129002000C0B200F0C4F80EE003214B
:1096D0000020FFF7CFFD14206872A87B052802D276
:1096E000C820288002E04FF41670288031BD4A7AE5
:1096F000022A04D103224A7200220A8006E04A7A32
:10970000222A03D123224A7200220A80704738B5E8
:1097100004000D00687A232802D1280000F0D3F855
:1097200031BD38B504000D002879022807D1687AC8
:10973000212804D300202880022068720AE02879BA
:10974000002807D1687A212804D229002000C0B25D
:10975000FFF758FF31BD38B504000D00E87B012844
:109760000AD1687A202807D102210020FFF735FAB4
:109770000020A8730020E87331BD38B504000D0047
:10978000A87A0B2808D30020A87229002000C0B2B4
:10979000FFF738FF0020287131BD018800290ED065
:1097A0000188491E01800188002908D1417A1129C8
:1097B00005D0417A142902D0817A491C8172704700
:1097C00070B506000C00150028793100C9B2884236
:1097D00027D02E713000C0B202280BD1687A202821
:1097E00002D0687A602805D129002000C0B200F0BC
:1097F00031F80BE03000C0B2022807D0687AC0060A
:1098000004D529002000C0B200F043F8E87A01280E
:1098100001D10220E872022229002000C0B2FFF725
:10982000B1FE70BD01000020002805D10A00D2B2AF
:10983000002A01D0401CF7E7C0B2704701000020A9
:10984000002805D10A00D2B2002A01D0401CF7E757
:10985000C0B2704738B504000D002879022812D133
:10986000287910F07F002871E87B002805D12900B5
:109870002000C0B2FFF7ABFE0AE029002000C0B212
:10988000FFF7B7FE04E029002000C0B200F001F8A5
:1098900031BD38B504000D00012068730120A871A6
:1098A00002210020FFF7E6FC03210020FFF7E2FC85
:1098B000287910F07F00287120206872002028800D
:1098C0000020A87331BD00218172017911F07F0160
:1098D000017140214172002101800021817101212B
:1098E000C1717047F8B505000E000027707A0400BA
:1098F00014203080707A022817D0032806D011284F
:1099000029D014281FD0232817D02EE002210020B0
:10991000FFF763F90700707A032803D000200700DF
:10992000707A04000020F07337E001210020FFF777
:1099300054F907000020B0732FE003210020FFF747
:109940004CF9070029E031002800C0B2FFF782FF80
:10995000707A040021E031002800C0B2FFF798FEC1
:1099600000203080707A040017E022207072FCF72B
:10997000FDFDF07B012807D102210020FFF72DF922
:109980000020B0730020F073FCF7F1FD01210020EE
:10999000FFF723F907000020B0733800C0B2002899
:1099A00004D000203080B07A401CB072707A402819
:1099B00007D1002007000020B07200203080707AAC
:1099C00004002000717AC0B288428FD1F1BD00201E
:1099D0006B4908707047F8B505000026684F387865
:1099E00000280BD100200400002C05D12000C0B2BB
:1099F000FFF711FE641CF7E701203870F1BD70B568
:109A000005002800FFF7E7FF5D4E307801280DD1F3
:109A10000220307000200400002C05D12000C0B2CC
:109A2000FFF722FE641CF7E70320307070BD38B5E5
:109A30005348007803283CD100200400002C38D182
:109A40004E48122101FB04F10844050029002000C2
:109A5000C0B2FFF766FEFCF78BFDE87A012801D162
:109A60000520E87229002000C0B2FFF774FE29002B
:109A70002000C0B2FFF781FE2800FFF78EFEFCF742
:109A800078FDFCF775FD2888002808D1687A10F069
:109A90000F0F04D029002000C0B2FFF723FFFCF70E
