:10000000FC8BFF1F056C020073B1FF1F73B1FF1F54
:1000100073B1FF1F73B1FF1F73B1FF1F73B1FF1FD8
:1000200073B1FF1F73B1FF1F73B1FF1F73B1FF1FC8
:1000300073B1FF1F73B1FF1F73B1FF1F73B1FF1FB8
:04040C00F4FFFFFFFB
:10400000182946580C010100B8000000A015010055
:0C40100000000000000003002040000041
:104020004A65E9ECA12C020000000000000000003D
:08403000FFFF02000040000048
:104040000001020304050607080C10141820304074
:10405000000102030405060708090909090A0A0AFA
:104060000A0B0B0B0B0C0C0C0C0D0D0D0D0D0D0D8F
:104070000D0E0E0E0E0E0E0E0E0E0E0E0E0E0E0E61
:104080000E0F0F0F0F0F0F0F0F0F0F0F0F0F0F0F41
:104090000F00000000000000FFFF01FF020304000A
:1040A00000FFFF03030500FF0300FF03040002FFFE
:1040B00001FFFF0500FF05000203FF0004FF0103ED
:1040C00003FF0000050003040001050505050102CA
:1040D00005020201030305030505030405000000B2
:1040E0006DB2FF1F6BB2FF1F69B2FF1F57B2FF1FF8
:1040F0005BB2FF1F6BB2FF1F6DB2FF1F6DB2FF1FE0
:104100006DB2FF1F6DB2FF1F6BB2FF1F39B2FF1FF1
:104110006DB2FF1F59B2FF1F39B2FF1F6BB2FF1FF5
:1041200055B2FF1F69B2FF1F6DB2FF1F55B2FF1FCF
:104130006DB2FF1F6DB2FF1F69B2FF1F57B2FF1FA5
:104140006DB2FF1FC9150020D3150020000000002C
:104150000102000003FF0300000000000000000057
:10416000C1070020010000001702449CFFFFFFDF91
:10417000010100011700449CFFFFFF9F00010001A7
:104180000002419CFFFFFF9F030100010000419CD2
:10419000FFFFFF9F0201000100020200000000007B
:1041A0002D080020170246DC01010000014000003C
:1041B000170046DC00010000014000000000010182
:1041C0004040008040400000010001000201020167
:1041D0000302FFFF0403FFFF010000000FC9C90035
:1041E00000FF0303FF080B0B01FFFF0102FF080B99
:1041F0000B01FF000201010FC9C900010003020108
:1042000000010203010000000000010101030000A1
:1042100000400240F4010100001000020101010110
:10422000000301020000200000020300000203035B
:104230000304030780400240C8400240104102408E
:10424000000000800000000000000080000000006E
:1042500021282080020009010130100000000380A5
:104260000000000200010240020000000000020005
:104270004000000000030004040003001DB1FF1F04
:10428000FF0F000000000000FF0F0000010101000F
:104290000101000101000000000003024BC4FF1FE8
:1042A0004DC4FF1F06000000D508002000000000DC
:1042B00000000000000000000000000000000000FE
:1042C00077070020010000000000000077100020A8
:1042D0001D120020310F00207D13002095140020B6
:1042E00000000000030405060305030503000005A4
:1042F0000301040603030205030201050200004056
:1043000001020001004000030300003E010500001F
:10431000004001040101004000000100003E0101D5
:10432000000002000000050200000403000001017B
:10433000000103010001000071BDFF1F000000002B
:10434000000200050004000100010004FA600020E2
:10435000A48FFF1F1000000001000000B48FFF1F9A
:104360001000000005000000C48FFF1F14000000B3
:1043700001000000D88FFF1F80000000A000000097
:104380005890FF1F04000000A10000005C90FF1F78
:1043900080010000A0000000DC91FF1F040000006D
:1043A000A10000005DAFFF1F04000000000000003E
:1043B000040000006FC401000400000000000000C1
:1043C000020000007FAFFF1F80010000000000001E
:1043D000050000006FC401000400000000000000A0
:1043E0000200000000112233445566778899AABB69
:1043F000CCDDEEFF00000000000000000000000027
:1044000000000000EA7FD4FEBE1F7C3E0DA01B40D2
:10441000873B0E75A42D4859A6BBA3E4391AF29622
:1044200028644EF4993A944C3A2A4A007916AFF12E
:1044300051010B1F10156D54981087632938A1B8CE
:10444000405A97123D3ADA2DAC9616F8F795AE36EB
:10445000DBAEFF9259D0C98255E68F795F2E444872
:10446000D868017E291C7B69D1A7E06F4F77EAF3FA
:10447000D063DD05AAD18012BDD7E5896773726963
:10448000658314C5F36A42DEDD443499669F2618BD
:10449000375890015520285F00010001B3E62D87B1
:1044A000E6057F2FF19FAD593079FA0F4ED2C074D7
:1044B0000FCD588BC5E8220F088F441576F2DEFB2E
:1044C0009637CC5BB80C47FF87159713E1F38184CF
:1044D000F8CE6F224E276369A9C1BC64B1E759AA1F
:1044E000D8B55EA85BBD62ED6E429B5545EA615052
:1044F0002E546C864298A06D91F0CD78296D951E52
:104500006EC98906D2194F32F46E4966FB9DE1DF10
:10451000E24FC829C9F0E25C8230266F4E5E05EF9B
:10452000373FE01B8324275D2CADC607CA8EF3847A
:10453000D2FD49F35B3548F48067C8C50D8EDACCEF
:104540000A9548F6942D7C8B038AA167CE8A9D023A
:10455000B53620EACCBB65D2963DDF03120A4C7F0C
:1045600035C8CEA39A694E25C8A27D0B07BC25FE8F
:10457000D834DF4E959493D52B911BEED79110ED47
:104580005E5C3B1F6A5520A89BB2CF4E55E7225276
:10459000823D461D9CD81D3E56F76CD5E7AD3F12B7
:1045A000588A41BE983A9C48ADB55D5A816F7BC32D
:1045B000159BF185F84A598A10E23317EC1A38D561
:1045C000A1D2FEF6FFB806835EA0314578FC40B16B
:1045D0001EBDACBC9BDE27498087BEB59F76F3A687
:1045E00030FBFD7C75BAED6F9D37E5457162334F49
:1045F000BCC876E5C7EC604A1415081FBAB5D125CA
:104600009FEEC983190205A4403DD8566C14365359
:1046100063E400F0271BE662BC38170300000011BA
:1046200002000000108FFF1F01000000288FFF1FF5
:1046300002000000348FFF1F020000004C8FFF1F9C
:104640003BFA0100010000000000000013F7010028
:104650000400000000000000FFFFFFFF000000005A
:104660000000000002000000FFFFFFFF000000004C
:10467000000000000700000002000000020000002F
:10468000030000000400000004000000000000001F
:104690000000000000000000010000000700000012
:1046A0000300000001000000020000000400000000
:1046B00001000000010000000300000001000000F4
:1046C000020000000840010000010001000100019B
:1046D000010000000000000103000000FEE70121CE
:1046E000174A1170704700201549087070472DE96E
:1046F000F84305000E00170098465FF000091048C7
:104700000078012819D100200400002C0FD1434665
:10471000DBB23A00D2B23100C9B2280080B2DFF871
:1047200024C05CF824C0E0478146641CEDE748469D
:10473000C0B2002801D1FFF7D1FF0020BDE8F2830D
:10474000CB6000203C8EFF1F00208E4908708E48F1
:10475000016831F040010160016831F4807101604D
:10476000016831F008010160016831F02001016049
:10477000016831F4007101600020844908707047BD
:1047800010B5814C206830F0100020600020804976
:1047900008802078800607D57E490868002803D065
:1047A0007D48007809688847FFF7CEFF207810F031
:1047B000060F03D041F288307849088010BD0020F0
:1047C000764908807048016851F04001016000207E
:1047D0006C49087000207249086000207149086027
:1047E00000207149086071486A49086000207049DA
:1047F000086000206F490860704738B504000D005C
:104800006D4804606D496A1E0A803222604B1A802E
:10481000026812783E2A17D102685278802A13D192
:104820000988012910D158490A7812070CD508685F
:1048300050F0200008606248006856490860FFF7A1
:104840009FFF07F094FD0CE00121504A11700068B1
:1048500000785C4908705C480078022801DB01F0B0
:10486000E0F931BD02000020110089B2002913D007
:10487000110089B2B1F5805F0ED243490B78DB0697
:104880000AD40B6833F008030B600B6853F0100375
:104890000B60494909680800704710B50400200002
:1048A00080B2FFF7DFFF002804D037490A6852F0D2
:1048B00008020A6010BD80B5FFF762FF01BD10B5A8
:1048C00004002000C0B2032801D0FFF759FF10BD3B
:1048D00010B504002000C0B2032801D0FFF750FF3C
:1048E00029480168890403D5016851F40041016039
:1048F00010BD7CB504000D001600ADF800506946EF
:10490000200000F073F83200D2B2BDF80010200091
:1049100007F0B7FC73BD30B4030000200A00D2B228
:10492000002A1CD01A0092B2002A18D01A0092B2A3
:10493000092A14D2254A0C00E4B2144414F8014C9C
:10494000012C0CD1224C0D00EDB204EBC504083C47
:10495000200000240D00EDB22A4402F8014C30BCC6
:1049600070470121194A0300DBB21A4402F8011C06
:1049700070470121154A0300DBB21A4402F8011CFA
:1049800070470000D0600020D4170020CF600020C6
:10499000A6600020FC170020CE600020966000205A
:1049A000F0170020F4170020F81700209595FF1F3E
:1049B000E8170020EC170020D0170020946000209A
:1049C00000180020CC600020D9600020CD600020BD
:1049D000DC17002010B5040003480078C00701D59B
:1049E00007F08CFC10BD0000D41700200278427044
:1049F0007F2202702122827003220A807047000009
:104A000081B0034800680090009880B201B0704700
:104A1000046002402DE9F84304000D001600270051
:104A2000A8465FF00009B1450BD219F03F0F01D144
:104A300001F062FC18F8090007F8090019F10109F2
:104A4000F1E72000BDE8F283DFF800F059770100BC
:104A5000DFF800F06D770100DFF800F0AD810100B4
:104A6000DFF800F0B1810100DFF800F0211D010046
:104A7000DFF800F0C9860100DFF800F0C18801000E
:104A8000DFF800F07B86010080B5DFF8B00B00781E
:104A9000012802D101F030FC01E0FFF7D5FFC0B2E0
:104AA00002BD80B5FFF7F0FF01BD80B5DFF88C0BCC
:104AB0000078002807D1DFF8940C0068C00502D404
:104AC0000120FFF7C5FF01BD01000868002801D0E3
:104AD0000A691044704710B40020022810D241F235
:104AE0001802DFF8243CDFF8581B02FB00F41951D0
:104AF00002FB00F21A4441F21403D150401CECE7CF
:104B0000DFF8D82BDFF8381B1160C2F81411DFF87A
:104B1000AC2C1160D16010BC704770B40020002133
:104B20000022022A14D2DFF8183B41F21804DFF801
:104B3000D85B04FB02F6AE595E40314304FB02F43D
:104B40002C4441F21405645963401943521CE8E7B0
:104B5000DFF8884BDFF8E83A25685D402943D4F850
:104B600014415C402143DFF8544C25685D402943E3
:104B7000E46863401943002901D022231800C0B221
:104B800070BC704770B40022C260002282600022B4
:104B90000260FF2202714A1E012301248C4210D2BE
:104BA0005B1C25010544AA6025010544EB60002536
:104BB0002601855100252601064435712200641C1A
:104BC000ECE701250E01064446F8045C70BC704712
:104BD00070B40300080090421DD006011E44B66860
:104BE000310006011E44F66834000E011E44F460D4
:104BF00026011E44B16016011E44F6683500060108
:104C00001E44B26016011E44F06006011E44F560A9
:104C10002E011E44B06070BC704738B504000D0012
:104C20002A00E1692000FFF7D3FF32BD10B5040070
:104C3000A1682000FFF7F1FF10BD38B504000D009A
:104C4000A26929002000FFF7C3FF32BDF8B50400B8
:104C50000D001700A6683001204400793900C9B260
:104C6000884203D2300120448668F4E732002900EC
:104C70002000FFF7ADFF2801204407712800F2BD96
:104C800070B504000D0016002A00D2B2E1692000C0
:104C9000FFF7DCFF0101665070BD70B504000D0028
:104CA0001600EE612A00DFF89C0C297E415C200092
:104CB000FFF7E6FF70BDDFF8A80BC1690901405896
:104CC000704710B40160426082600024C460002418
:104CD00004610024446100240462002480F824401C
:104CE00003760024447610BC70472DE9F047002578
:104CF000DFF86C6B04213000FFF744FF02275FF000
:104D000001080024022C32D2002C02D0454618F1B2
:104D100001085FF02809DFF84CAB002341F21002D4
:104D2000DFF8E40941F2180101FB05F10844011D17
:104D300009FB04F05044FFF7C4FF40F6FF7009FB85
:104D400004F151448860022009FB04F15144C86019
:104D5000012009FB04F1514481F8240009FB04F906
:104D60000AEB0900390170507F1C641CCAE7BDE8DA
:104D7000F0870020DFF8F01A08700020DFF8EC1A46
:104D800008700020DFF8B41808700020DFF88C1CD1
:104D90000860704780B5FFF7ECFF0821DFF8A80B2B
:104DA000FFF7F0FEFFF7A1FF01230822DFF89C1BAD
:104DB000DFF89C0BFFF785FF0020DFF8981B4861A8
:104DC000FFF789FE4120DFF8541C086000F0D4FC96
:104DD00002BD80B500F0D0FC02220100DFF8400CDB
:104DE000FFF718FE01BD80B500F0C6FC0222DFF817
:104DF000301CFFF70FFE01BD70B404002000DFF887
:104E0000245C0B00DBB255F83330002B0BD00E00C6
:104E1000F6B205EBC6052D791600F6B2B54202D002
:104E2000834200D2180070BC70472DE9F84F05008E
:104E30000C002700002C00D07F1E17EB05085FF048
:104E40000009DFF8E4ABBAF900B0404600F045FFD6
:104E5000AAF80000BAF90000002819D4DFF8CC1B2A
:104E6000DFF8CC0BBAF900200C2312FB03F210443C
:104E7000027A1C20424301EB0200808A401E060099
:104E800096EA0800002C00D1401C814616EA090968
:104E9000AAF800B04846BDE8F28F2DE9F0410400C1
:104EA0000D00160029002000FFF7BFFF00280BD0DF
:104EB000711C0F0000218846804505D2FF2107F8AC
:104EC000081018F10108F7E7BDE8F08170B504009B
:104ED0000D0016002A6831002000FFF79BFD00201E
:104EE00070BD2DE9F34F83B00027DDF80C80049CE2
:104EF000DFF8349B404600F0F0FEA9F80000B9F955
:104F00000000002802D5312007005FE0B9F9000059
:104F10000600002C5AD0FFF7C4FDFFF7C6FD5FF076
:104F20000C0ADFF80CBBB9F9000010FB0AF058447A
:104F30004068B0EB0800401C0500A5421ED2B9F83D
:104F40000000401C06003000DFF8941C097800B215
:104F500009B2884202DB3120C0B239E016FB0AF008
:104F60005BF80000B0EB080001900198844202D386
:104F70000198241A05E03120C0B229E02500002064
:104F80000400FFF769FD002802D02220C0B21FE014
:104F90004146280001F04CF9ADF80000FFF760FD34
:104FA000002802D02220C0B212E0BDF80000002884
:104FB00002D07220C0B20BE0A9F80060B9F900007D
:104FC00010FB0AF05BF800008046A2E73800C0B290
:104FD00005B0BDE8F08F2DE9FF4F83B000208DF8BC
:104FE000000000260027DDF80C80049804685FF0BC
:104FF0000009002C78D0DFF870080078052873D1FC
:10500000FFF74FFDFFF751FD2500DFF81CBA4046C2
:1050100000F063FEABF80000BBF90000002802D5E9
:105020007120C0B267E00C21DFF8042ADFF8FC39F8
:10503000BBF9000010FB01F0104490F808C01C20E0
:1050400000FB0CFC03EB0C00808A401E18EA000FEA
:1050500002D07220C0B24EE0BBF9000010FB01F09C
:1050600010444068B0EB0800401C01900198A84231
:1050700002D2DDF804A00EE015EB0900401E070087
:10508000059800EB070229004046FFF706FF0600DF
:10509000AA4616EB0A0AFFF7DFFC002802D07220AE
:1050A000C0B228E0424651460598484401F074F8E1
:1050B000ADF80200FFF7D4FC002802D07220C0B285
:1050C00019E0BDF80200002802D07220C0B212E040
:1050D0001AEB0808A24504D21AEB0909B4EB0A043A
:1050E00087E70020040084E704980068001B049907
:1050F00008609DF8000007B0BDE8F08F2DE9F04191
:1051000004000D000026DFF82079B7F90080281987
:10511000401E00F0E2FD3880B7F90000002814D4EA
:105120002919DFF80829DFF80809B7F900305FF01E
:105130000C0C13FB0CF31844037A1C20434302EBC2
:105140000300808A401E01400E00A7F80080300056
:10515000BDE8F0812DE9F84F04000D001600FFF7BF
:10516000A0FC286800902000FFF7AEFC07005FF06D
:105170000008DFF8BCBA9BF8100000282BD021688B
:105180002269DBF81800121A01EB02000700DBF8B5
:105190001820DFF8B8173800FFF73CFC0099DBF85F
:1051A0001800411800913000C0B2012813D00098B7
:1051B000DBF81C1088420ED00099DBF81400FFF7D2
:1051C0009DFF80460098404501D20020804600980F
:1051D000B0EB08000090DDF80090DBF81C000099AF
:1051E00018EB0101884202D25FF0710A13E09BF8CC
:1051F0001000002807D13A006946DBF81400FFF7D9
:1052000065FE824607E004233A006946DBF8140095
:10521000FFF7E1FE82465046C0B2002827D1DBF8F6
:10522000141000984118CBF81410DBF81C100098EB
:10523000091ACBF81C10009881450AD1CBF81880C8
:105240004246009807EB0001DFF80007FFF7E2FB9A
:105250000DE00098002808D00099DBF81800091A22
:1052600029600020CBF8180001E00020286050469B
:10527000C0B2BDE8F28F2DE9F84305000E0017001B
:105280001C005FF000085FF000092868002815D0B6
:10529000686807733068696808617068696888823F
:1052A000DFF89009696888616868296888478146DD
:1052B0004846C0B2002801D022208046002C01D0F0
:1052C00084F800904046C0B2BDE8F2831CB50024CB
:1052D0000020009000200190002301226946DFF8A1
:1052E0005809FFF7C8FF002801D022200400200041
:1052F000C0B216BD38B584B004000D006A46A96876
:10530000042000F0B3FC01AAE968042000F0AEFC20
:1053100068460290082003900023022202A9200080
:10532000FFF7A9FF05B030BDF8B504000D00160069
:105330001F00200031002822FFF796FB25766761C9
:10534000F2692100DFF80006FFF7A7FC94F82400BB
:1053500001280AD1DFF80805C16809014158C2686F
:1053600012018058006A401C0862F1BD38B5040083
:105370000D00DFF8C8080069002806D02B002200C5
:105380000521DFF8BC08FFF7CFFF31BD2DE9FE4353
:1053900004000D00FFF785FB2000FFF795FB80461A
:1053A0002A00D2B2217E6069FFF726FD0090207EA0
:1053B000002800F08080022818D07CD3042815D063
:1053C00079D3052840F09780CDF8048000980290AA
:1053D0000023022201A9DFF86008FFF74CFF002834
:1053E00003D07220DFF85C18087088E0DFF86405ED
:1053F0000600DFF83C08806930610098B0F5803F16
:1054000002D34FF6FF700090DFF83C98C9F8008097
:105410000098A9F804003000FFF756FB71690844B2
:10542000C9F808000020A9F80C004846FFF720FB47
:10543000002804D07220DFF80C18087019E0B9F8C1
:105440000C00B9F804100843002812D1207E04286B
:105450000BD14846FFF710FB002803D02220DFF8CD
:10546000E41708700220607603E07220DFF8D4179A
:105470000870DFF8D007007800281BD1B9F80400C5
:105480000090B9F80C0000280AD07069B9F80C1027
:1054900040187061E2693100DFF8AC04FFF7FDFBF2
:1054A000207E022806D10098002803D00099200011
:1054B000FFF75CFF23E0207E012806D101200700D2
:1054C000DFF86C078069206101E0002007003A00E6
:1054D000D2B269462000FFF73DFEDFF8681708707A
:1054E0000098002806D0207E002803D100992000D3
:1054F000FFF73CFF03E02220DFF84817087021691E
:1055000000984118216161690098091A6161DFF80A
:10551000349799F80000002806D1FFF7FEFA00281A
:1055200002D0222089F8000099F80000BDE8FE832F
:105530002DE9F8430500FFF7B4FADFF82C8398F85B
:10554000000002280ADB3D480078012803D198F8C2
:105550000000052802D1052088F8000098F8000016
:10556000052845D100200400DFF8DC93D9F80C00B1
:105570000600300159F8000007002900C9B23800C0
:10558000FFF704FF002825D1787E022805D0787E19
:10559000002824D17869002821D131004846FFF73E
:1055A0004CFBD9F80C00002802D1002088F800003C
:1055B00097F8240001280CD1A949C86800010858AF
:1055C0000700386A401E3862386A002800D10C0093
:1055D00005E004E0012088F80000A1480400002C48
:1055E00006D0E068002803D0E1682000FFF725FB23
:1055F000BDE8F18310B504009B48007802280DDB5C
:10560000DFF84806C1680901084400792100C9B2E1
:10561000884203D30120FFF78BFFEDE710BD10B5E3
:105620000400E069012808D1DFF824060078022888
:1056300003DB0020FFF77CFFF3E710BDDB600020F9
:10564000647269422DE9F84304000D001600FFF76B
:1056500032FB07003800FFF737FA844206D1B868FA
:10566000854203D2B868401BB04201D2722032E0BA
:10567000DFF8F48198F80000012829D0F86828188C
:1056800038617E61DFF8A80590F828103976C26A83
:105690003900AD48FFF701FBDFF8C4914846FFF73A
:1056A000C5FAD9F80800000159F80000D9F8081027
:1056B000090159F80110096A491C01624846FFF7BF
:1056C000AEFF98F80000012802D0052088F80000FD
:1056D000DFF870050078C0B2BDE8F283BC3A002064
:1056E00038B504000D00FFF7DCF9CC480168214013
:1056F000A14204D10168A9430160002002E0002119
:1057000001600120C0B232BD84190020F8B5040048
:105710000D00904E03234FF48772DFF838153000E8
:10572000FFF7CFFA4FF48077B760042300220021FF
:10573000DFF82405FFF7C5FADFF80C05C781DFF8AD
:105740001C150161FFF726FBF2BD0000D4170020F5
:1057500080B500210220FFF7D9FF02BD10B5FFF789
:1057600038FBFFF717FB0400FFF73DFB200010BDDF
:1057700080B5FFF7FEFA01BD10B5FFF79CFA0400F3
:10578000E06820612000FFF79FF910BD10B504000C
:1057900000214020FFF7A4FF002801D0242003E0CF
:1057A00061682068FFF79DFB0100C9B2002902D1A2
:1057B00041219A4A1160C0B210BD00007419002046
:1057C00070B50400002501210120FFF789FF0028A2
:1057D00002D02420050007E02069002804D1A06A37
:1057E000002801D1222005002800C0B2002810D1D5
:1057F000DFF84864300021003C22FFF735F9002033
:10580000716B08700020DFF82814086302208349B8
:1058100008602800C0B270BD1CB500241021102003
:10582000FFF75EFF002802D0242004000EE00020D5
:10583000009000200190002303226946DFF8F8035E
:10584000FFF719FD002801D0722004002000C0B22B
:10585000002802D12020714908602000C0B216BD86
:10586000543C0020B4390020D9600020DA600020C8
:105870002DE9FC4105000C00002700208DF80000F8
:1058800000212020FFF72CFF002802D02420070051
:1058900046E0DFF8A8836B460422290018F11000C7
:1058A000FFF7E9FC002802D01020070038E0D8F804
:1058B0002800002834D0DFF87C03D8F82C10886149
:1058C000D8F83000D8F82C10C861A869D8F82C1086
:1058D0000861D8F80000D8F82C108860D8F8340097
:1058E0004168D8F8340002780C20424301EB0200F2
:1058F0000C3806007168D8F80000091AB068411821
:10590000D8F82C00C160D8F82C00D8F828108847A7
:105910008DF800009DF80000002801D0102007003D
:105920003800C0B2002804D13C48016851F0410160
:105930000160002C02D09DF8000020703800C0B239
:10594000BDE8F681F0CF0000D43B0020781900209C
:10595000043A00206C3A0020F8B504000025B44E4B
:10596000002086F8280002210220FFF7B9FE002857
:1059700002D02420050032E0B04F786B007897F811
:105980003810884202D33120050028E0306B00280F
:1059900005D1FFF79BFC002801D02220050028003C
:1059A000C0B2002808D1210017F11000FFF7A2FCB7
:1059B000002801D0722005002800C0B200280ED1B6
:1059C000607C00280BD0022086F828009E48617C6D
:1059D0000175FFF755F8002801D031200500280097
:1059E000C0B2002816D1300021001422FFF73CF885
:1059F000206870610020B0616068F06120683062EA
:105A000060687062306BF062306B401C3063042061
:105A1000024908602800C0B2F2BD00000019002051
:105A20009E600020F8CF0000A0600020D40001009C
:105A3000E4FF00002DE9F047040000270C210820B6
:105A4000FFF74EFE002802D0242007005AE0FFF79F
:105A5000C0F9DFF8FC8198F8000001281CD0DFF8BD
:105A6000D09199F81100002807D07B490120487691
:105A7000D9F82C207548FFF710F9DFF8D0A1D9F834
:105A80002C2077495046FFF708F9DAF80C00002877
:105A900002D0052088F800000120FFF7ABFD98F840
:105AA0000000012803D167480078070009E0604939
:105AB000C869002801D0242007004A68C869121A62
:105AC00022603800C0B2002815D15C49486B42689A
:105AD000486B03780C20434302EB03000600544854
:105AE00002687260806830602068B060486B00783F
:105AF000401C496B0870FFF7DEF805000220E860E3
:105B0000FFF771F93800C0B2002802D112205549C0
:105B100008603800C0B2BDE8F0872DE9F047040006
:105B20000D0016005FF000085FF000090C21042052
:105B3000FFF7D6FD002802D07120814609E03C49DC
:105B4000487C002805D1B046486AB04201D2712095
:105B500081464846C0B200282FD1FFF73AF93200FB
:105B600029002000FFF76EFD81464846C0B200289C
:105B700021D1DFF8BCA0DAF82400B0EB0800CAF8A5
:105B80002400FFF798F807000220F8609AF8100048
:105B9000002810D09AF8110000280CD13100DAF852
:105BA0002000FFF7ABFAF9684018F860DAF8200037
:105BB0003018CAF82000FFF716F94846C0B200288E
:105BC0000AD11B48406A002803D1082025490860F3
:105BD00002E00C20234908604846C0B2BDE8F087C7
:105BE0003916010038B51A4C2078052811D11E4D00
:105BF000012028702078052803D10020FFF798FCA9
:105C0000F8E72078032801D10220207000202870B6
:105C1000FFE731BD0E480178022901DB0521017043
:105C200070470B480178042901DB0321017070479C
:105C3000401900206396FF1F14190020041900204A
:105C40002C3A0020DA600020543A0020D43B002097
:105C5000D9600020C03A0020943A00204996FF1FE6
:105C6000043A002000190020DB60002010B40C0072
:105C70000300002B03D05B1ED454240AF9E710BCA8
:105C8000704730B40400220000200025002A05D00F
:105C900000024B5D18436D1C521EF7E730BC704785
:105CA000FF20DFF8241608700020DFF820160870A7
:105CB0005FF0FF30DFF818160880DFF8181608804C
:105CC0000020DFF814160880DFF81006DFF8101641
:105CD0000A6802604968416070472DE9F04104009C
:105CE0002500DFF8F8653068854207D37068A84260
:105CF00004D3DFF8E405B0F900006CE0DFF8D475F8
:105D000000203880DFF8DC85B7F9000098F8001033
:105D100009B2884214DA387810F00F0F01D1FEF77B
:105D200093FEDFF8BC05B7F900100C2211FB02F15D
:105D300008444068A84203D23888401C3880E1E714
:105D4000B7F9000098F8001009B288422FDA0C2247
:105D5000DFF88C15B7F9000010FB02F008588542F7
:105D60000BD3B7F9000010FB02F3CB58336010FBE4
:105D700002F21144496871602AE05FF0FF30B7F920
:105D80000030012B02DA0023336008E0B7F900305D
:105D900013FB02F30B4453F8083C5B1C3360B7F968
:105DA000003013FB02F28958491E716010E05FF069
:105DB000FF30DFF82C2598F800300C214B4302EB24
:105DC000030151F8081C491C31605FF0FF3171601C
:105DD000DFF80415088000B2BDE8F08170B504005A
:105DE0000D0001262000FFF778FF0100080000B237
:105DF000002809D4DFF8E8040C2211FB02F2104459
:105E0000007A2870002006003000C0B270BD2DE975
:105E1000F84F05000C0016005FF0010B002C05D1B7
:105E200031002800FFF7DAFF834636E02800FFF74D
:105E300054FF80466019401EFFF74FFF81464046E1
:105E400000B2002824D4484600B2002820D4002004
:105E500083460C20DFF8881418FB00F20A44127AFB
:105E6000170018F1010292464A46534612B21BB27D
:105E70009A420DDB3A001AFB00F30B441B7AD2B2B4
:105E80009A4202D00120834602E01AF1010AEBE7B0
:105E90005846C0B2002800D137705846C0B2BDE89D
:105EA000F28F7CB504000D0016006B46320029000D
:105EB000200000F002F8009876BD2DE9FF4F83B076
:105EC000039D059C049E00270020ADF80000FEF70E
:105ED000BBFDDFF8FC832800FFF7FFFEA8F80000F9
:105EE000B8F9000000282BD5DFF8E803B0F900105E
:105EF000DFF8F023127812B2914221DA0C21DFF898
:105F0000E023B0F9003013FB01F3D3589D4217D2C0
:105F1000B0F9003013FB01F3D3585B1BA3420FD23F
:105F20000088A8F80000B8F9000010FB01F0105834
:105F3000241A2C19B8F9000010FB01F010580500C4
:105F4000B8F900B0B8F90000002859D4002C59D095
:105F50005FF00C09DFF888A3B8F9000010FB09F026
:105F6000504440686119491E884224D2B8F90000A3
:105F700010FB09F050444068401B401C01901BF18D
:105F8000010B5846D749097800B209B288420FDAA6
:105F90001BFB09F05AF80000401BA04206D21BFB75
:105FA00009F05AF80000241A2C1907E0002405E033
:105FB0000020040002E00194002004002A0001995E
:105FC000300000F09DF8002804D0E52810D1E5202D
:105FD000ADF80000A8F800B001980644B8F9000038
:105FE00010FB09F05AF8000005000198C71904E0F9
:105FF000002004000120ADF80000FEF725FDA5E714
:106000000020070006980760BDF8000007B0BDE853
:10601000F08FAD4B1870AD4B19707047FF21AA4A35
:1060200011700021A94A117070472DE9F84305004D
:10603000002600273800AC490978C0B2884228D22F
:106040005FF01C08DFF8A4923800C0B208FB00F033
:106050004844C27D01213800C0B2FFF7DAFF2800B2
:106060003900C9B208FB01F159F801108847040052
:106070003800C0B208FB00F809EB0800C07DFFF74C
:10608000CDFF200080B2002801D0260001E07F1C57
:10609000D0E7300080B2BDE8F2832DE9F041040082
:1060A00000250026300090490978C0B2884223D2EA
:1060B0001C27DFF838823000C0B278434044027EAB
:1060C00002213000C0B2FFF7A4FF20003100C9B2A6
:1060D000794341444968884705003000C0B207FB56
:1060E00000F708EB0700007EFFF798FF280080B25A
:1060F000002801D1761CD5E7280080B2BDE8F081E8
:106100002DE9F14F0C0015000126714FB7F9000081
:1061100000283DD4B7F900007249097809B28842D5
:1061200036DA5FF01C085FF00C09DFF8B4A1DFF885
:10613000BCB1B7F9000010FB09F05044007A08FB2D
:1061400000F05844C27E0621B7F9000010FB09F0A8
:106150005044007AFFF75DFF2A0021000098B7F94C
:10616000003013FB09F353441B7A08FB03F35B4431
:106170001B6998470600B7F9000010FB09F050446E
:10618000007A08FB00F80BEB0800C07EFFF746FF23
:10619000300080B2BDE8F28F2DE9F14F0C00150000
:1061A00001264B4FB7F9000000283DD4B7F9000095
:1061B0004C49097809B2884236DA5FF01C085FF072
:1061C0000C09DFF81CA1DFF824B1B7F9000010FBBF
:1061D00009F05044007A08FB00F05844827E032105
:1061E000B7F9000010FB09F05044007AFFF711FFE7
:1061F0002A0021000098B7F9003013FB09F353443B
:106200001B7A08FB03F35B44DB6898470600B7F989
:10621000000010FB09F05044007A08FB00F80BEB7B
:106220000800807EFFF7FAFE300080B2BDE8F28FF2
:106230002DE9F84F04000D000126254FB7F90000A5
:1062400000283CD4B7F900002649097809B28842F1
:1062500035DA5FF01C085FF00C09DFF884A0DFF886
:106260008CB0B7F9000010FB09F05044007A08FB2D
:1062700000F05844427E0421B7F9000010FB09F0F9
:106280005044007AFFF7C5FE29002000B7F900202E
:1062900012FB09F25244127A08FB02F25A44926845
:1062A00090470600B7F9000010FB09F05044007A4F
:1062B00008FB00F80BEB0800407EFFF7AFFE300054
:1062C00080B2BDE8F28F0000DC600020DD600020BD
:1062D000A0600020A4600020A2600020943C002068
:1062E000E4FF0000391601003A160100D400010055
:1062F00080B500F001F801BD38B500241C480078D5
:10630000012830D11B48016889052CD5016831F47A
:106310000071016054F00204174D2888002810D045
:106320002888401E2880288840F6C411884208D258
:1063300012480068C00504D505F080FE41F288309F
:1063400028800F4D287800280BD02878401E287010
:106350002878002805D100F049F90120287054F070
:10636000030405F06FFE05F0AAFE2000C0B232BDA6
:10637000DE60002000600240A6600020D4170020EC
:10638000DF600020DFF800F0D7C40100DFF800F084
:1063900073C50100DFF800F0D9C3010010B5040097
:1063A000207B012806D16068002803D116482060B0
:1063B0001820606000212000FFF7E4FF10BD10B539
:1063C000040000212000FFF7E1FF10BD18B593B0D5
:1063D00004000E48009003A8019002200290694634
:1063E0002000FFF7D7FF14B010BD18B593B004001C
:1063F0000748009003A801900220029069462000FF
:10640000FFF7C8FF14B010BDE85C0020648FFF1FC9
:10641000848FFF1F13B400983F4988420CD03F4936
:1064200088421FD03E49884232D03E49884245D0FA
:106430003D49884258D06CE01000C0B2002808D016
:106440003A490B6801249DF90400844023430B6002
:1064500007E036490B6801249DF904008440A343FA
:106460000B6056E01000C0B2002808D030490B681D
:1064700001249DF90400844023430B6007E02C496C
:106480000B6801249DF904008440A3430B6040E0A5
:106490001000C0B2002808D026490B6801249DF9DD
:1064A0000400844023430B6007E022490B68012469
:1064B0009DF904008440A3430B602AE01000C0B2A1
:1064C000002808D01C490B6801249DF90400844071
:1064D00023430B6007E018490B6801249DF9040071
:1064E0008440A3430B6014E01000C0B2002808D021
:1064F00012490B6801249DF90400844023430B607A
:1065000007E00E490B6801249DF904008440A34371
:106510000B6013BC704700000090044000A00440D2
:1065200000B0044000C0044000D0044000F00F4020
:1065300040F00F4080F00F40C0F00F4000F10F40DE
:1065400010B5054C6168206841186160FEF758FA83
:106550002060002010BD00003860002070B40400EE
:1065600000202500ADB2232D02D0502D13D01AE00B
:106570001D00EDB2603D0AD0203D08D0103D06D090
:10658000233D04D00E3D052D01D93E3D02D101250C
:106590002800FFE707E01D00EDB2072D02D101251D
:1065A0002800FFE7FFE7C0B270BC70477047704734
:1065B000704780B500220121012000F001F801BDE3
:1065C00081B000238DF800309DF80030002BFBD007
:1065D00001B0704770477047704770477047704709
:1065E00070477047704770477047704770470000AA
:1065F000F8B504000D0000270020287000262000B8
:10660000C0B200F025F8012803D1022006000120C5
:106610002870DFF8F4032100C9B2405C002803D0E1
:1066200002200600012028703000C0B2002806D0E9
:10663000DFF8D8032100C9B2405C022805D1DFF899
:10664000CC032100C9B2405C06003000C0B2F2BDEC
:10665000030000200022002A0CD1DFF8B413895C6B
:10666000002905D00100C9B2002901D1012108008B
:10667000521CF0E7C0B2704710B5040002212000A0
:10668000C0B201F0EDF80220DFF880132200D2B290
:10669000885410BD7047704770470021DFF874239D
:1066A0000300DBB2D15470477047704710B5040047
:1066B0000423602200210C20FEF719F810BDF8B564
:1066C0000026DFF854733878012802D1062006002E
:1066D00046E0DFF84803DFF848130978017000212D
:1066E000418000210C002100C9B2002924D10021E1
:1066F000DFF818232300DBB2D1540021DFF8142384
:106700002300DBB2D1540021DFF818232300DBB2D1
:10671000D1540021DFF810232300DBB2D154002133
:10672000DFF8E4222300DBB2D15402212200D2B2EE
:1067300002441171641CD6E7002005002800C0B295
:10674000002807D10020DFF8C8122A00D2B28854EE
:106750006D1CF3E700F010F8002801D1012038701B
:106760003000C0B2002806D03300DBB20122002185
:106770000C20FDF7BCFFF1BD10B400200122130076
:10678000DBB2012B02D0072318000DE00023190013
:10679000002909D102231C00E4B2052C02D30724EE
:1067A000200001E0491CF3E7C0B210BC7047002094
:1067B000DFF864120870704770B504000D00002601
:1067C000DFF854020078012802D0012006000BE017
:1067D0002000C0B2002802D00220060004E0DFF84A
:1067E00048022100C9B245543000C0B2002806D08A
:1067F0003300DBB2352200210C20FDF778FF70BD9D
:106800007CB50500002684480078012816D12800B0
:10681000C0B2002802D0022006000FE0FFF7E4FE1D
:1068200069462800C0B2FFF7E3FE04002100C9B2A8
:106830002800C0B200F00EF8FFF7D7FE3000C0B25B
:10684000002806D03300DBB2602200210C20FDF7C7
:106850004EFF73BD2DE9F04104000D002F00DFF85D
:10686000B48172493A00D2B20520424301EB0200E2
:106870002100C9B218F80110405C06002000C0B227
:1068800018F80000052835D23000C0B2052831D2F2
:106890002000C0B218F8000001280ED13000C0B2AC
:1068A00002280AD360482100C9B2405C002804D104
:1068B0002000C0B218F80000070038002100C9B25B
:1068C00018F80110C0B2884219D02000C0B2584A4E
:1068D0003300DBB214214B4302EB03012200D2B29E
:1068E00018F8022051F8221088472000C0B208F89A
:1068F000006004E02000C0B218F80000070020008B
:10690000C0B218F800003900C9B28842A7D1BDE86A
:10691000F08170B5040000263F480078012802D0BD
:106920000120060019E02000C0B2002802D0022099
:10693000060012E0002005002800C0B200280CD19B
:1069400034482900C9B2405C800704D402202F4992
:106950002A00D2B288546D1CEEE73000C0B2002885
:1069600006D03300DBB22A2200210C20FDF7BFFE47
:1069700070BD70B505000C0000262748007801287E
:1069800002D00120060032E02800C0B2002802D068
:10699000022006002BE0002C02D10220060026E097
:1069A0002078032802D30220060020E01D48290099
:1069B000C9B2415C2278914219D021782A00D2B222
:1069C0008154207800280DD0022801D005D30EE094
:1069D0002800C0B206F0A4F809E02800C0B206F012
:1069E00093F804E02800C0B206F080F8FFE730001A
:1069F000C0B2002806D03300DBB2332200210C20C5
:106A0000FDF775FE70BD0000F7600020C760002034
:106A1000F8600020C6600020C3600020C817002076
:106A20009892FF1FC4600020C5600020848CFF1F67
:106A3000A08CFF1FF8B504000D0000260127DFF829
:106A400028050078002802D10120060023E020005C
:106A5000C0B2022802D3022006001CE0DFF8102595
:106A6000DFF808052100C9B2515C50F82100007818
:106A7000002802D1012006000DE02900201DC0B22F
:106A8000DFF8F034A4465FFA8CFC12F80C2053F8BF
:106A90002220904707003000C0B2002806D0330003
:106AA000DBB2C82200213320FDF721FE3800C0B23E
:106AB000F2BD2DE9FE4F04000D0016001F005FF02F
:106AC00000085FF00109DFF8A0040078002802D177
:106AD0000120804647E02000C0B2042802D30220F3
:106AE000804640E0DFF88404DFF88C142200D2B244
:106AF000895C50F821000078002802D101208046EE
:106B000031E08DF80440DFF874049DF8041000EBC8
:106B1000810090F802A0DFF868045146C9B200EB8A
:106B2000810090F801B05FF0060CDFF858E43B00FC
:106B3000320092B229005846C0B20CFB00F01EF899
:106B4000000000900D00DFF840045946C9B20CFB6C
:106B500001F17144097949010844D0F810C02900B5
:106B60000098E04781464046C0B2002806D0434620
:106B7000DBB2CC2200213320FDF7B9FD4846C0B27C
:106B8000BDE8FE8F2DE9F84F04008A461500002667
:106B90000127DFF8D4030078002802D10120060085
:106BA0003FE02000C0B2042802D30220060038E0F3
:106BB000DFF8B803DFF8C0132200D2B2895C50F8C6
:106BC00021000078002802D10120060029E08DF87C
:106BD0000040DFF8A8039DF8001000EB810090F85A
:106BE0000280DFF89C034146C9B200EB810090F8B7
:106BF00001900623DFF88CC32A0051464846C0B2F4
:106C000058431CF80000DFF880E3CB465FFA8BFBAB
:106C100003FB0BF363441B795B0173449B68984748
:106C200007003000C0B2002806D03300DBB2CD220E
:106C300000213320FDF75BFD3800C0B2BDE8F28FC4
:106C40002DE9F84304000D0016001F005FF0000856
:106C50005FF00109C4480078002802D10120804675
:106C600020E02000C0B2022802D30220804619E0B2
:106C7000DFF818C3BD482100C9B21CF8111050F844
:106C800021000078002802D1012080460AE03B0064
:106C9000320029002000C0B20CEB4000407800F028
:106CA0003FFA81464046C0B2002806D04346DBB2D8
:106CB000CE2200213320FDF71AFD4846C0B2BDE8C0
:106CC000F2832DE9F84304000E000025A648007861
:106CD000002802D10120050037E02000C0B20428BE
:106CE00002D30220050030E0A048A3492200D2B21E
:106CF000895C50F821000078002802D101200500AD
:106D000023E027009D483900C9B200EB810090F8CC
:106D100002809B484146C9B200EB810090F8019087
:106D20000622984B3100C9B24846C0B25043185CA5
:106D3000DFF854C2CE465FFA8EFE02FB0EF21A4412
:106D4000127952016244526990472800C0B200286B
:106D500006D02B00DBB2CF2200213320FDF7C7FC89
:106D6000BDE8F18370B504000D0000267E48007870
:106D7000002802D1012006001DE02000C0B2022838
:106D800002D30220060016E0804A78482100C9B2EA
:106D900012F8111050F821000078002802D10120CB
:106DA000060008E02900C9B22000C0B202EB400092
:106DB000407800F07DF93000C0B2002806D03300E2
:106DC000DBB2D02200213320FDF791FC70BD2DE90C
:106DD000F84F04000D00160000275FF0010862481C
:106DE0000078002802D10120070045E02000C0B251
:106DF000042802D3022007003EE065495B482200D8
:106E0000D2B211F8122050F822000078002802D1E6
:106E10000120070030E02000C0B201EB40004078C4
:106E20008DF8000056489DF8001000EB810090F8A6
:106E3000029052484946C9B200EB810191F801A085
:106E4000514B5146C9B24901595C890714D549468D
:106E5000C9B200EB810090F803B0320092B2290071
:106E6000C9B25846C0B2D4465FFA8CFC5FEA4C1CEB
:106E700063445B68984780463800C0B2002806D05B
:106E80003B00DBB2C52200213320FDF730FC404639
:106E9000C0B2BDE8F28F0020704770B50400002634
:106EA000002C02D00B20060011E000200500280075
:106EB000C0B2002808D100202C492A00D2B251F8D3
:106EC000221008706D1CF2E701202749087030007D
:106ED000C0B2002806D03300DBB2012200213320EB
:106EE000FDF705FC70BD38B5040000251E4800788C
:106EF000002802D10420050010E0FFF7CCFF1B4959
:106F0000C0B251F820000078002802D0032005000C
:106F100004E0FFF7C0FFC0B200F00CF82800C0B2D8
:106F2000002806D02B00DBB2002200213320FDF721
:106F3000DEFB31BD01210D4A0300DBB252F82320F4
:106F40001170704710B4020000200E4B062404FBA1
:106F500002F423445B790B60C0B210BC7047002080
:106F60000149087070470000FB6000200C8FFF1F74
:106F70009292FF1FF88EFF1FFC8EFF1FE08EFF1FF7
:106F8000A48EFF1FBC8EFF1F648EFF1F088FFF1F84
:106F9000008FFF1F38B504000D002E482100C9B234
:106FA00050F83100804731BD38B504000D00294844
:106FB0002100C9B200EBC1004068804731BD38B53F
:106FC0000400254810F82410CD1E2900C9B2234A18
:106FD00000EB840043780620434302EB03008078F3
:106FE000FFF7D8FF31BD38B504001B4810F8241056
:106FF000CD1E2900C9B2194A00EB8400437806204F
:10700000434302EB03008078FFF7CEFF31BD38B574
:1070100004000620114A00FB04F111448D78290078
:10702000C9B200FB04F010448078FFF7B3FF31BD14
:1070300038B504000620094A00FB04F111448D789C
:107040002900C9B200FB04F010448078FFF7ACFFC0
:1070500031BD00005C8EFF1FA48EFF1FBC8EFF1F82
:107060002DE9F04104000D0001262000FFF7A7FFE5
:10707000654800EB840047780622644B29003800FD
:10708000C0B25043185CDFF888C1BE465FFA8EFE7E
:1070900002FB0EF21A44127952016244D2699047FF
:1070A00080462000FFF79FFF4046C0B2BDE8F08158
:1070B000F8B504000D002000C0B2FFF7A8FF694634
:1070C0002000C0B2FFF73EFF00281ED14E480099B5
:1070D00000EB8101C978062916D1009900EB8100E7
:1070E00086784C4A2900C9B23000C0B202EB800059
:1070F000C078474B3700FFB202EB8702527852014B
:107100001A449269904706E005E0A123A9220021D4
:107110003320FDF7ECFA2000C0B2FFF789FFF1BD84
:107120002DE9FC470400894615001E0001272000B8
:10713000C0B2FFF76CFF69462000C0B2FFF702FF44
:10714000002827D13048009900EB8101C978062931
:107150001FD1009900EB810090F80280DFF8B4C0E5
:1071600033002A0049464046C0B20CEB8000C0788C
:10717000DFF89CE0C2465FFA8AFA0CEB8A0C9CF8B6
:1071800001C05FEA4C1CF444DCF80CC0E047070087
:1071900006E005E0A123AB2200213320FDF7A7FA8A
:1071A0002000C0B2FFF744FF3800C0B2BDE8F68748
:1071B0002DE9F84304000D000126164F07EB84006B
:1071C00090F8028007EB84008078401CC0B28045B4
:1071D00015D20D4800EB880090F801900B4806216D
:1071E00001FB09F108444078012805D129004046F7
:1071F000FFF736FF3040060018F10108E2E73000E3
:10720000C0B2BDE8F2830000A48EFF1FBC8EFF1F3A
:10721000648EFF1FE08EFF1F012A06D006D3032ACB
:1072200001D001D302E08170417001707047012AE2
:107230004CD04CD3032A47D047D3052A42D042D35F
:10724000072A3DD03DD3092A38D038D30B2A33D072
:1072500033D30D2A2ED02ED30F2A29D029D3112A89
:1072600024D024D3132A1FD01FD3152A1AD01AD3FF
:10727000172A15D015D3192A10D010D31B2A0BD0DA
:107280000BD31D2A06D006D31F2A01D001D31EE03E
:10729000817741770177C176817641760176C17534
:1072A000817541750175C174817441740174C17334
:1072B000817341730173C172817241720172C17134
:1072C000817141710171C1708170417001707047AD
:1072D0002DE9F84304000F00150000263800C0B265
:1072E000B8465FFA88F85FEA084858EA006838004C
:1072F000C0B258EA00283800C0B250EA0808A946CF
:10730000B9F1100F11D344F8268004EB8600C0F8C1
:10731000048004EB8600C0F8088004EB8600C0F807
:107320000C80361DB9F11009EAE74846401E0228D4
:1073300011D9C01E03280BD9001F032805D9001F2F
:10734000032810D844F82680761C44F82680761C42
:1073500044F82680761C19F003023900C9B204EB08
:107360008600FFF759FFBDE8F183012A08D009D351
:10737000032A01D002D305E08B7883704B784370E9
:107380000B7803707047012A6AD06BD3032A63D04D
:1073900064D3052A5CD05DD3072A55D056D3092A79
:1073A0004ED04FD30B2A47D048D30D2A40D041D3DB
:1073B0000F2A39D03AD3112A32D033D3132A2BD003
:1073C0002CD3152A24D025D3172A1DD01ED3192A31
:1073D00016D017D31B2A0FD010D31D2A08D009D3DB
:1073E0001F2A01D002D33DE08B7F83774B7F437709
:1073F0000B7F0377CB7EC3768B7E83764B7E437683
:107400000B7E0376CB7DC3758B7D83754B7D43757A
:107410000B7D0375CB7CC3748B7C83744B7C437472
:107420000B7C0374CB7BC3738B7B83734B7B43736A
:107430000B7B0373CB7AC3728B7A83724B7A437262
:107440000B7A0372CB79C3718B7983714B7943715A
:107450000B790371CB78C3708B7883704B78437052
:107460000B78037070472DE9F84F07008846914666
:107470005FF0000ACB46BBF1100F1FD358F82A006B
:10748000009008EB8A004068040008EB8A008068DE
:10749000050008EB8A00C0680600009847F82A003B
:1074A00007EB8A00446007EB8A00856007EB8A00DF
:1074B000C6601AF1040ABBF1100BDCE75846401E07
:1074C00002281AD9C01E032811D9001F032808D981
:1074D000001F032819D858F82A0047F82A001AF183
:1074E000010A58F82A0047F82A001AF1010A58F848
:1074F0002A0047F82A001AF1010A1BF0030208EBE0
:107500008A0107EB8A00FFF730FFBDE8F18F30B446
:107510000C00022C0AD0032C11D114681D684455AC
:107520001C68641C1C601468240A146014681D68BC
:1075300044551C68641C1C601468240A1460146898
:107540001D6844551C68641C1C601468240A14607F
:1075500030BC70472DE9FE4F04000D0016001F00DF
:10756000002000905FF00009B246BAF1200FC0F091
:10757000128155F829000190BAF1040A6B4601AA5C
:1075800039002000FFF7C3FF009804EB000800203B
:10759000009019F10109032F45D1BAF1100FC0F085
:1075A000CF8055F8293005EB8900D0F804E005EBD1
:1075B0008900D0F808C005EB8900C168019A52EA39
:1075C00003225FEA0E2050EA13605FEA0C2353EABD
:1075D0001E635FEA012E5EEA1C6E8B465FEA1B6B40
:1075E000CDF804B0DDF800C048F82C20DDF800C06C
:1075F00008EB8C0CCCF80400DDF800C008EB8C0C18
:10760000CCF80830DDF800C008EB8C0CCCF80CE0AE
:10761000DDF800B01BF1040BCDF800B019F104093E
:10762000BAF1100AB9E7022F45D1BAF1100FC0F034
:10763000878055F8293005EB8900D0F804E005EB88
:107640008900D0F808C005EB8900C168019A52EAA8
:1076500003425FEA0E4050EA13405FEA0C4353EAEC
:107660001E435FEA014E5EEA1C4E8B465FEA1B4BEF
:10767000CDF804B0DDF800C048F82C20DDF800C0DB
:1076800008EB8C0CCCF80400DDF800C008EB8C0C87
:10769000CCF80830DDF800C008EB8C0CCCF80CE01E
:1076A000DDF800B01BF1040BCDF800B019F10409AE
:1076B000BAF1100AB9E7BAF1100F41D355F82930E1
:1076C00005EB8900D0F804E005EB8900D0F808C08C
:1076D00005EB8900C168019A52EA03625FEA0E6015
:1076E00050EA13205FEA0C6353EA1E235FEA016E3F
:1076F0005EEA1C2E8B465FEA1B2BCDF804B0DDF84A
:1077000000C048F82C20DDF800C008EB8C0CCCF849
:107710000400DDF800C008EB8C0CCCF80830DDF874
:1077200000C008EB8C0CCCF80CE0DDF800B01BF1CD
:10773000040BCDF800B019F10409BAF1100ABAE748
:10774000F90011F01F01D1F12002BAF1040F15D395
:1077500055F82930DDF804E013FA02F050EA0E0E75
:107760001800C8400190009848F820E00098401C9C
:10777000009019F10109BAF1040AE6E7009808EB54
:1077800080000400002000906B4601AAD7F104019C
:107790002000FFF7BCFE524605EB8901009820440B
:1077A000FFF7F1FDBDE8F78F2DE9F84305000E0066
:1077B0001700A8465FF00009202F06D23A003100DA
:1077C000C9B24046FFF733FD13E0D8F1040414F0CA
:1077D0000304002C07D022003100C9B24046FFF755
:1077E0001BFDA0443F1B3A003100C9B24046FFF7E1
:1077F0006FFDBDE8F1832DE9F84F06000F009046BC
:10780000B146BA465FF0000BB8F1200F05D24246F0
:1078100051464846FFF7B7FD20E0DAF1040515F0C0
:107820000305002D08D02A0051464846FFF79DFD6C
:10783000AA44A944B8EB0508D9F1040414F00304E0
:10784000002C05D1424651464846FFF70CFE05E0A4
:107850002300424651464846FFF77CFEBDE8F18FC3
:1078600070B504000D002900C9B22000C0B202F0BA
:1078700010FE06003000C0B2002805D003236022AD
:1078800000210C20FCF733FF70BD7047704770B5C6
:1078900004000D00012629002000C0B2FFF7CAF83D
:1078A000C0B270BD2DE9F04104000D0016001F00AC
:1078B0005FF001083B00320092B229002000C0B204
:1078C000FFF7F7F8C0B2BDE8F081F8B504000D008D
:1078D00016000127320029002000C0B2FFF752F93C
:1078E000C0B2F2BD2DE9F04104000D0016001F00EA
:1078F0005FF001083B00320029002000C0B2FFF712
:107900009FF9C0B2BDE8F08138B504000D00290030
:10791000C9B22000C0B2FFF7D4F931BD38B50400B8
:107920000D002900C9B22000C0B2FFF71BFA31BD1B
:1079300070B504000D001600320092B22900C9B2E1
:107940002000C0B2FFF743FA70BD000038B5DFF881
:10795000740D047C00252900C9B22000C0B200F0DB
:10796000F1F8FF21DFF8602D0300DBB222F82310CD
:1079700031BD7CB50400002500208DF80400DFF83F
:10798000CC0C0078002802D10520050038E0DFF893
:107990003C6D3079ADF80000707910F00C0070711A
:1079A000684600F0DCF88DF804009DF8040001281A
:1079B00017D1684600F0E2F89DF8041008408DF8F1
:1079C0000400684600F0FEF89DF8041008408DF8A9
:1079D0000400684600F016F99DF8041008408DF880
:1079E00004009DF80400012804D1707950F00400CF
:1079F000707105E0707910F00800707105200500C5
:107A00002800C0B2002806D02B00DBB202220021E1
:107A10005020FCF76CFE9DF8040076BDF8B504001C
:107A20000D0016003200D2B22900C9B22000C0B247
:107A300000F094FC07003800C0B2012817D00520E0
:107A400004F0C4FF3200D2B22900C9B22000C0B293
:107A500000F084FC0700052004F0BCFF012803D1DE
:107A60003800C0B20128EDD1052004F0C9FF38006C
:107A7000C0B2032804D1DFF8540C84714570C6717C
:107A80003800C0B2F2BD70B504000D001600300021
:107A9000C0B201280FD1DFF8340C417911F00C018C
:107AA00021434171102181712900C9B2DFF84C0DC9
:107AB000007802F0AFF970BD10B5040000206070CE
:107AC0000021207800F03EF8E07010BD70B5040091
:107AD0000125DFF8F40BE17830F82110FF292CD1D3
:107AE000E17800EB810194F824208A700121E2788A
:107AF00020F82210200000F00BFADFF8040D217F9F
:107B0000405C10F00F0050F060002072A06920F07F
:107B100060406060200000F0FCF9206A002804D07A
:107B2000206AE060200000F012FA200000F0E6FA7F
:107B30000600200000F0FAFA01E00220050028000B
:107B4000C0B270BD10B40200DFF8603D1400E4B2B2
:107B500009204443185D0818C0B210BC704738B5FE
:107B600004000025200000F0A1F8012803D1200026
:107B700000F0ACF805002800C0B232BD70B50400BA
:107B80000125DFF8400B007CA070DFF8201DA278F3
:107B90000920424301EB0200C078E0700021A07888
:107BA000FFF7D0FF0600FF20DFF81C1B3200D2B227
:107BB00021F82200200000F0FEF801000D4028000E
:107BC000C0B270BDF8B504000126DFF8F87A787B02
:107BD000A070A078F97A884211D2DFF8D01CA27880
:107BE0000920424301EB0200C078E070200000F061
:107BF000FDF805002E40A078401CA070E9E7300099
:107C0000C0B2F2BD70B504000125200000F05DF99E
:107C100006002E40200000F06EF93040C0B270BD6A
:107C20001CB500F03AFB01281DD1DFF8984A607BB3
:107C30008DF800009DF80000E17A884213D2DFF849
:107C40006C1C9DF800200920424301EB0200C07823
:107C50008DF80100684600F02DFB9DF80000401CE7
:107C60008DF80000E6E713BD38B504000025636811
:107C7000227CE168207A01F040FE2800C0B232BDCB
:107C800010B4040000202180C0B210BC7047016015
:107C9000704710B4040000202160C0B210BC7047CF
:107CA00010B4019C0A80019410BC704738B50400E0
:107CB000208800F0EDFB05002800C0B2012802D1A9
:107CC00000F087FC05002800C0B232BD2DE9F84F56
:107CD0000400DFF8F0793D6897F82000461EB87977
:107CE000002801D056F40066009443F63F3332007A
:107CF00092B229000020FFF7D3FFB5F802804DF6BD
:107D0000903010EA080858F00308009442F2EB4360
:107D1000424692B2A91C0020FFF7C2FFDFF8E0AC98
:107D200020880AEBC000D0F8049019F4025959F0E9
:107D3000400923005FF0FF324946281DFFF7A7FFE7
:107D400023005FF0FF3220885AF8301015F1500000
:107D5000FFF79DFFB879002819D0D7F800A01AF5D1
:107D6000406ADFF8A0BC23005FF0FF3220880BEBF5
:107D7000C00041685046FFF78AFF23005FF0FF32E2
:107D800020885BF830101AF10400FFF780FF97F8A5
:107D900017A05AF4070AB879002801D05AF4805A7B
:107DA00023005FF0FF32514615F13400FFF76FFFFB
:107DB0000120BDE8F28FF8B504000025012623005C
:107DC00040F67F724FF40261DFF83C0CDFF8F47884
:107DD0003F7A94F803C01CEB070750F82700801C7B
:107DE000FFF74EFF36EA0000C0B2F2BD2DE9FE4FAC
:107DF00005000020DFF8CC68316811F508610191B9
:107E000001275FF00008DFF8A41A4246AB7809208A
:107E1000434301EB03004079D2B2824251D2E87869
:107E200018EB00000400DFF8E40B2A88825CA2183B
:107E3000737B0920434301EB0300C078121A8DF8CD
:107E40000020DFF8C49BDFF86CBC2B005FF0FF3232
:107E50009DF800005BF8301021F06041307A50FA54
:107E600084F059F82000001DFFF713FF824637EA1F
:107E70000A0A2B005FF0FF329DF800000BEBC000F8
:107E8000017951F040410198A4465FFA8CFC00EB67
:107E90008C00FFF7FEFE83463AEA0B0B2B0040F600
:107EA0007F724FF48461307A50FA84F059F82000E0
:107EB000801CFFF7E5FE3BEA0000070018F101080F
:107EC000A1E73800C0B2BDE8FE8F70B50400DFF84E
:107ED000F4170E68DFF8F4078078002809D1887A53
:107EE000050023005FF0FF32290016F12800FFF79C
:107EF000CEFE012070BD0100012070470120C0B2FC
:107F000070470120DFF8B01B0870012070477047F0
:107F1000704770B48378DFF8F84ADFF8EC5A217ABA
:107F200051FA83F155F8211042684A60027A12F042
:107F30006F0252F40062068A418A0E433243217A6C
:107F400051FA83F155F821104A8070BC70472DE931
:107F5000F04390B001008A780B7DDBB29B080C7D6A
:107F600014F00304887D8D7D2D0455EA0065887D1D
:107F700055EA0025887D054300275FF0000C604628
:107F80009E46C0B25FFA8EFE70452BD2C868BE46D0
:107F90005FFA8EFE10F80E00D1F80CE0B8465FFADA
:107FA00088F8C6449EF801E05FEA0E4E5EEA006E75
:107FB000C868B8465FFA88F8404480785EEA002EC8
:107FC000C868B8465FFA88F84044C07850EA0E0E98
:107FD0006846E0465FFA88F840F828E03F1D1CF14B
:107FE000010CCCE72000C0B200284ED0EE460020A5
:107FF000E0465FFA88F84EF82800B84640460E7D05
:10800000C0B2B0421AD26046C0B25EF82000000290
:108010006646F6B24EF826006046C0B25EF82060B2
:10802000C868C1465FFA89F910F80900064360463E
:10803000C0B24EF8206018F10108DFE70E7DB046AF
:108040005FFA88F891F8149019F104092000C0B281
:10805000B9EB0009C84516D26046C0B25EF82000F0
:108060000002E0465FFA88F84EF828006046C0B289
:108070005EF82080887D50EA08086046C0B24EF85D
:108080002080761CDBE71CF1010C487DC01C8008B9
:10809000E64676468046F6B25FFA88F8464508D24C
:1080A0006E46F0465FFA88F846F828501EF1010E39
:1080B000EFE70026B64680465FFA8EFE5FFA88F844
:1080C000C64518D2DFF840E9DFF8448998F80880FF
:1080D00058FA82F85EF828E0B0465FFA88F80EEBAE
:1080E000880EE846B1465FFA89F958F82980CEF83B
:1080F0000880761CDEE710B0BDE8F08310B4010004
:108100008A78DFF8C005DFF80039047A54FA82F47F
:1081100053F82440007A50FA82F053F82000408847
:1081200050F444606080012010BC70477047DFF855
:10813000E02813680020196B92F8212011400029D3
:1081400001D001221000C0B270472DE9F0410400B7
:1081500000256678DFF8B808D0F800803100C9B291
:10816000404600F059FB070016F01F003900C140DF
:10817000C80706D53200D2B22900C9B2207800F073
:1081800054FB761CBDE8F08138B50400DFF88008A8
:108190000568A178280000F035FB31BD70472DE956
:1081A000F84F0400DFF81C552E6801275FF0010826
:1081B000FEF710FADFF81495DFF84CA8287A6178FA
:1081C00008185AF820004088A9F83000B9F83000A3
:1081D000C00519D5022004F0F9FB287A6178081847
:1081E0005AF820004088A9F83000022004F0F2FB81
:1081F0008046B9F83000C00503D54046C0B201281A
:10820000EBD0022004F0FCFB287A617808185AF8B9
:1082100020004068C9F834005FF0000B59466A7AC4
:10822000C9B291421ED2297A627851185AF82110A7
:108230005A46D2B201EB8201896808000100090A9E
:1082400011F47F4151EA1061020212F47F021143DE
:1082500051EA00615A46D2B209EB820291631BF1E6
:10826000010BDBE76178300000F0CCFAB068A9F8C8
:108270003200FEF7B0F94046C0B2012801D000201C
:10828000070019F13000606019F13800A060380073
:10829000C0B2BDE8F28F704770470020DFF8242499
:1082A0001368196B927E1140002901D00122100041
:1082B000C0B270472DE9F0410500DFF808040668F8
:1082C00000275FF000084146DFF8E0252B78092001
:1082D000434302EB03004079C9B2814218D2687867
:1082E00018EB000004002100C9B2300000F094FA3D
:1082F000070014F01F003900C140C80705D56C7095
:108300002100C9B2287800F0D3FA18F10108DAE7A1
:10831000BDE8F081704730B4DFF8A8231168002071
:108320000B6A5B0716D506230B62537F1C0092F87D
:108330002050E4B2AC420BD2DFF8CC46157A55FAA5
:1083400083F554F825404FF4026565805B1CEDE72A
:1083500001221000C0B230BC70477047F8B504006D
:108360000D00160000272000C0B203280ED00428FC
:1083700006D0052812D0092818D00A2819D01EE0E6
:108380003000C0B2FFF7F5FA070018E03100C9B2BB
:108390002800C0B200F05CF9070010E03100C9B25B
:1083A0002000C0B200F094F9070008E001200700A7
:1083B00005E03000C0B200F0B5F90700FFE7380073
:1083C000C0B2F2BDF0B40020BE4A13685FF0FF34C3
:1083D0001C6307241C625C6834F040045C60547FBA
:1083E000250092F82060EDB2B5420BD2DFF81856A6
:1083F000167A56FA84F655F826504FF402666E80C7
:10840000641CEDE7557B2800D67AC0B2B0423BD25F
:1084100000200100DFF894640F00AC465FFA8CFC8A
:10842000092000FB0CFC06EB0C004079FFB28742F0
:1084300028D22F00FFB20920474306EB0700C0787F
:1084400008180400DFF8C005167A56FA84F650F8CA
:108450002660177A57FA84F750F827707F8817F04C
:10846000F0077780167A56FA84F650F82660177A65
:1084700057FA84F750F82700408850F480607080E5
:10848000491CC7E76D1CBEE7F0BC704770477047DA
:108490002DE9F0410400012501268A48076848F6C5
:1084A000100079880140814203D0386A800600F1CB
:1084B0008C80788848F21001084251D1788850F4B5
:1084C00080407880788850F4805078804DF610187D
:1084D000788818EA0000B0F5B24F1ED0032004F0EF
:1084E00075FA032004F076FA0500788818EA00008F
:1084F000B0F5B24F03D02800C0B20128F1D003205C
:1085000004F07EFA2800C0B2012806D0DFF8A805E2
:108510000078012801D100200600788850F400403E
:1085200078807888C0061BD4012004F04FFA01201F
:1085300004F050FA05007888C00603D42800C0B2C1
:108540000128F4D0012004F05BFA2800C0B2012811
:1085500006D0DFF864050078012801D1002006006C
:10856000DFF89C04210089B200EBC1004068800460
:1085700004D5786850F40050786003E0786830F4EF
:108580000050786078884004400C78807888C00675
:108590001BD5002004F01AFA002004F01BFA050095
:1085A0007888C00603D52800C0B20128F4D0002086
:1085B00004F026FA2800C0B2012806D0DFF8F8043B
:1085C0000078012801D1002006003000C0B2BDE8CB
:1085D000F08170B5012401253A4806684FF4007017
:1085E00070807088800510D5042004F0EFF9042015
:1085F00004F0F0F904007088800503D52000C0B2B3
:108600000128F4D0042004F0FBF92000C0B20128B6
:1086100006D0DFF8A4040078012801D1002005006D
:1086200071884FF67F70014071802800C0B270BD24
:1086300038B50400DFF88054002028702000C0B254
:10864000FFF797F901212970C0B232BDC060002048
:1086500070B504000D001B490E680868006A8006AA
:108660000AD52000C0B2002801D1002028E028004F
:10867000C0B2FFF7DDFF23E0086842884DF6101016
:108680000240B2F5B24F05D1FFF79CFEFFF75EF94D
:10869000012015E00868408810F45040B0F5A04F64
:1086A00001D103200CE070884004400C7080708879
:1086B00050F480407080708850F4805070800320A7
:1086C000C0B270BDD08DFF1FAC4A0020B04A002060
:1086D00030B40200DFF8E4080368046864884DF6EB
:1086E00010152C4201D1012019E00068408810F4D7
:1086F000504F01D1032012E058884004400C5880AC
:108700005C884EF6FF7004405C805C884BF6FF701E
:1087100004405C80586850F0400058600320C0B2AC
:1087200030BC704738B50400DFF890080568016870
:10873000096A89061CD501684968490603D5696834
:1087400031F0400169600068408810F4504F0DD04E
:1087500068884004400C688069884EF6FF700140CC
:10876000698069884BF6FF7001406980032042E010
:10877000016849884DF61012114222D10068406804
:1087800040061CD42000C0B2FFF752FF0100C9B25E
:10879000012930D169884904490C69806A884EF6FC
:1087A000FF710A406A806A884BF6FF710A406A804E
:1087B000696851F040016960032108001BE0012055
:1087C00019E00068408810F4504F01D1032012E0F6
:1087D00068884004400C688069884EF6FF7001404C
:1087E000698069884BF6FF7001406980686850F0C5
:1087F000400068600320C0B232BD00009592FF1FA8
:10880000108CFF1F0A00D2B2202A04D2012311F0DB
:108810001F02934003637047020000200B00DBB28D
:10882000202B01D2136B1800704770B504000D00A7
:108830001600002000F00DFA3200D2B22900C9B2B1
:108840002000C0B200F004F8002000F02BFA70BD48
:108850002DE9FC4104000D00160000278DF80040B2
:108860008DF801508DF802609DF801109DF8000010
:10887000FFF768F98DF803006846FFF785FCDFF81D
:1088800040079DF8031000EB810191F80280FF2161
:108890009DF8032020F822104046C0B200F0F5FEFB
:1088A0006846FFF77BFCBDE8F3810000208EFF1FC8
:1088B00038B504000D00002000F0CBF92900C9B242
:1088C0002000C0B200F004F8002000F0EBF931BD48
:1088D00070B586B004000D0000268DF800408DF8BC
:1088E00001506846FFF75BFC01283AD1DFF8D40657
:1088F0000199098811F00F01405C8DF8140001986E
:10890000406820F0604050F00040049001980088DA
:10891000000403D5049850F080400490019800882A
:10892000000406D49DF81400092802D30320060091
:1089300017E0DFF894169DF800200920424301EB70
:108940000200C0799DF81410884202D2032006006C
:1089500007E09DF800008DF80C0001A8FFF784F9EE
:1089600006006846FFF797FC6846FFF795FC300065
:10897000C0B2002806D03300DBB2502200215020C4
:10898000FBF7B5FE06B070BD38B50024FFF7C2FC9A
:10899000FFF7C1FC01281CD1DFF83056E878002829
:1089A00017D1FDF719FE032028700120E87000227E
:1089B00000210920FFF732F8687910F00C0050F020
:1089C00002006871FDF709FEDFF80406007801F087
:1089D0009EF8FFF7C2FC2000C0B2002806D023009A
:1089E000DBB2532200215020FBF781FE31BD80B560
:1089F0000020DFF8E0150870FFF789FA01BD0000DC
:108A0000108EFF1F188EFF1FF48DFF1F9692FF1F01
:108A1000D08DFF1F70B50024DFF8C0150D68DFF89A
:108A2000B4653178002902D00620040035E000202A
:108A3000DFF8AC150870FFF761FA01282DD104208A
:108A40003070DFF88865002070711020B07101204F
:108A500070700020F071002030700020F070002055
:108A6000B070FFF74EFA012817D1DFF86C050178D6
:108A7000DFF84805C0794118317101220121042035
:108A8000FEF7CCFF0100C9B2012904D1717951F080
:108A90000201717101E006210C002000C0B2002823
:108AA00006D02300DBB2002200215020FBF71FFE7E
:108AB00070BD0000008EFF1FBF6000202DE9F84F41
:108AC00004000D005FF000085FF000095FF0000A8D
:108AD000DFF800050078002802D105208246A3E0D7
:108AE000DFF8E8B49BF80500400702D40520824671
:108AF0009AE09BF80500800706D42800C0B2002841
:108B000002D1062082468FE09BF8050010F0820F0C
:108B100007D12800C0B203280BD02800C0B2022819
:108B200007D09BF80500000606D52800C0B2012832
:108B300002D10620824677E0FDF74EFD2800C0B244
:108B4000002805D0022862D027D3032848D067E048
:108B50009BF80300002802D00A20060001E005204F
:108B600006000020070000208DF800009DF800207E
:108B70003900C9B23000C0B2FEF750FF8146484606
:108B8000C0B2012802D100208BF803004A46D2B2BD
:108B900002210120FEF777FF44E0032006009BF846
:108BA0000000002802D10120070006E09BF8000029
:108BB000401E8BF800000020070000208DF8000008
:108BC0009DF800203900C9B23000C0B2FEF726FF80
:108BD00081464A46D2B201210220FEF754FF21E02D
:108BE0000320060000208DF80000012007009DF8FA
:108BF00000203900C9B23000C0B2FEF70FFF814635
:108C00004A46D2B201210220FEF73DFF0AE00120D0
:108C100081464A46D2B203218020FEF734FF01E0AC
:108C200006208246FDF7D9FC4846C0B2002801D094
:108C3000012080465046C0B2002806D05346DBB221
:108C4000032200215020FBF752FD4046C0B2BDE890
:108C5000F28F70B504000025DFF878030078002853
:108C600002D10520050011E0DFF86063707940074C
:108C700002D40520050009E0B078002803D116F1E0
:108C80000C00FFF703FCB078401CB0702800C0B2A5
:108C9000002806D02B00DBB2042200215020FBF775
:108CA00026FD70BD38B504000025DFF828030078E4
:108CB000002802D10520050015E0DFF810134879DF
:108CC000400702D4052005000DE0887800280AD06E
:108CD0008878401E88708878002804D111F10C0033
:108CE00007C8FFF7D4FB2800C0B2002806D02B002D
:108CF000DBB2052200215020FBF7F9FC31BDF8B5AD
:108D00008AB005000C0000260027DFF8C8020078B2
:108D1000002802D105200600B1E02800C0B20328D7
:108D200002D302200600AAE0DFF8A012487940072B
:108D300002D405200600A2E0DFF88C222B00DBB273
:108D40000920434302EB03008079022814D02B0052
:108D5000DBB20920434302EB0300807905280BD0E6
:108D60002B00DBB20920434302EB03008079062885
:108D700002D00220060082E0002C05D0A068002866
:108D800005D12079002802D00120060077E0207963
:108D9000092804D393480B79C05C002809D02B0024
:108DA000DBB20920434302EB0300C07923799842E8
:108DB00002D20320060062E02068800002D5012074
:108DC00006005CE0C878002802D00020070056E0CA
:108DD0008DF800502B00DBB20920434302EB030067
:108DE000C0788DF802002068069020798DF81C006C
:108DF000A0680890207B8DF824009DF81C000928AD
:108E000008D278480B79C05C002803D1069830F06E
:108E1000C04006900020ADF81200069840000DD525
:108E20004FF40040ADF810006E480979405C01280D
:108E300007D14FF48040ADF8120002E00020ADF8F9
:108E400010009DF81C008DF814005E4866499DF8DE
:108E50001430C95C11F00F01405C8DF815009DF8CD
:108E600000100920414302EB010080788DF81600C4
:108E70006846FEF721FE6846FEF728FE0700300030
:108E8000C0B2002806D03300DBB2062200215020F9
:108E9000FBF72DFC3800C0B20BB0F0BD38B5002494
:108EA0004C480078002802D10520040029E04748FA
:108EB0004179490702D40520040022E040790006E8
:108EC0001FD4FFF734F901281BD13C4D287C8DF8C5
:108ED00000009DF80000A97B884212D23A499DF813
:108EE00000200920424301EB0200C0788DF8010008
:108EF0006846FFF72AF99DF80000401C8DF8000035
:108F0000E7E72000C0B2002806D02300DBB2012230
:108F100000215020FBF7EBFB31BD38B500242D4874
:108F20000078002802D10520040013E02C4D287899
:108F300000280FD10120287024484179490702D424
:108F40000520040004E04079000601D4FEF768FE25
:108F5000002028702000C0B2002806D02300DBB219
:108F6000082200215020FBF7C2FB31BD10B50024C0
:108F700018480078002802D10520040011E01348A9
:108F80004179490702D4052004000AE0407900062F
:108F900007D40020FFF75DFEFFF7F6FC0020FFF787
:108FA00081FE2000C0B2002806D02300DBB20922D7
:108FB00000215020FBF79BFB10BD0000D08DFF1F50
:108FC000AC4A0020008CFF1F208EFF1FB04A0020FB
:108FD0009592FF1FC06000208E92FF1F548CFF1FD0
:108FE000BE6000209792FF1F108CFF1FF8B5040091
:108FF00000250126DFF8881BDFF8882B2300DBB271
:109000000C20434302EB0300C2790620424301EBEC
:109010000200C778DFF8701BDFF8702B2000C0B2A9
:1090200011F8100002EB40004078002814D1200015
:10903000C0B211F8100002EB400001214170DFF8CE
:10904000500BDFF8501B10F8272010F82700085CA1
:10905000401C8854002006002800C0B2002806D01A
:109060002B00DBB2012200213C20FBF740FB30004B
:10907000C0B2F2BDF8B5040000250126DFF8001BE0
:10908000DFF8002B2300DBB20C20434302EB03008C
:10909000C2790620424301EB0200C778DFF8E80AF4
:1090A000DFF8E81A2200D2B210F8122001EB4202D7
:1090B0005278012A14D12200D2B210F8120001EB2A
:1090C000400000214170DFF8C80ADFF8C81A10F824
:1090D000272010F82700085C401E88540020060056
:1090E0002800C0B2002806D02B00DBB201220021EC
:1090F0003C20FBF7FCFA3000C0B2F2BD2DE9F04194
:10910000DFF8785B0600F6B205EB460676780700D6
:10911000FFB215F81770BE423FD2DFF8647BBF5D27
:1091200039005FF0060CDFF858EA0CFB01F77744D2
:10913000FF780CFB01FCF4449CF804C0BCF1010F67
:1091400029D1DFF84CCA0CEB870E9EF803E073467A
:109150000CEB870E9EF801E0734512D2DFF824EB8A
:109160001EF803E07446DFF824EADFF81C8A18F8DA
:1091700014800EEB480E5FF000088EF801805B1C37
:10918000E6E71CF827C062465FF0000CDFF804EA4F
:109190000EF802C0FFE7761CB9E7BDE8F08170B5B4
:1091A0000600002400252800C0B2002812D12800A3
:1091B000C0B2FFF7A3FFDFF8D00A01212A00D2B224
:1091C00000F8121000212A00D2B200EB42004170D8
:1091D0006D1CE8E72000C0B2002806D02300DBB2F7
:1091E000012200213C20FBF782FA70BD38B5040053
:1091F000012500212000C0B2FFF760FC012801D149
:10920000002005002800C0B232BD38B50400012599
:1092100001212000C0B2FFF751FC012801D100203C
:1092200005002800C0B232BD38B504000125022176
:109230002000C0B2FFF742FC012801D10020050048
:109240002800C0B232BD38B504000125032120003A
:10925000C0B2FFF733FC012801D10020050028002F
:10926000C0B232BDF8B504000D0001262800C0B21E
:10927000012804D063D3032846D02DD35FE0DFF864
:10928000087A2000C0B217F8100001281DD022D3A0
:10929000032801D006D31EE02000C0B2FFF7D3FFA1
:1092A000060018E02000C0B2FFF7AFFF00280BD186
:1092B00001202100C9B207EB410148702000C0B273
:1092C000FFF71CFF0020060005E02000C0B2FFF7FA
:1092D0009CFF0600FFE738E0DFF8AC092100C9B2C7
:1092E00010F81100012802D0022806D00BE020005F
:1092F000C0B2FFF77BFF060005E02000C0B2FFF719
:1093000075FF0600FFE720E0DFF87C092100C9B205
:1093100010F81100012802D0032809D00EE0200027
:10932000C0B2FFF781FF002801D10020060005E050
:109330002000C0B2FFF778FF0600FFE705E0152325
:10934000032200213C20FBF7D2F93000C0B2F2BD6D
:10935000F8B504000D00012600272000C0B2002847
:1093600002D00F20070015E0DFF81C092100C9B268
:1093700010F81100002802D11E2007000AE0FDF7B6
:109380002DF92900C9B22000C0B2FFF76BFF06001B
:10939000FDF725F93800C0B2002806D03B00DBB24B
:1093A000032200213C20FBF7A2F93000C0B2F2BD3D
:1093B00070B4030000200C24DFF8C8571A00D2B2A2
:1093C00062432A44527A0E79B24211D21A00D2B2C2
:1093D00062432A445279002A08D01A00D2B204FB10
:1093E00002F405EB0402527A0A7101E00122100036
:1093F000C0B270BC7047F8B50400DFF88C07217B61
:1094000010F811502179DFF8842702F8151022791D
:10941000A168DFF8E83ADFF8E86A277B00EB47004D
:1094200047780320474306EB070080781844FEF78F
:10943000E2F9F1BDF8B5040001250026DFF8441774
:10944000227B0C20424301EB0200C7790621DFF8A2
:10945000302701FB07F01044C078FF282ED0A06809
:10946000002805D12079002802D01420060027E02A
:1094700001FB07F102EB0100007901281DD1DFF8A3
:10948000801ADFF80407227B00EB420042780320B9
:10949000424301EB020040782179884208D3200042
:1094A000FFF7A9FF207BFFF7A1FD0020050003E0E7
:1094B0000B2006000120050002E001E0012005006C
:1094C0003000C0B2002806D03300DBB205220021F4
:1094D0003C20FBF70CF92800C0B2F2BDF8B504003F
:1094E0000C26DFF8A0762100207B70433844C07939
:1094F000FFF705FC05002800C0B2022803D12000B8
:10950000FFF798FF18E02800C0B2002801D1012021
:1095100012E0DFF86C16207B06FB00F607EB060076
:10952000C2790620424301EB02000079012802D1F2
:10953000207BFFF79FFD0020C0B2F2BD2DE9FF4761
:1095400006000C0001275FF000083000C0B20228BE
:1095500002D3322080466BE05FF00C09DFF824A6CE
:109560003000C0B209FB00F0504480790500002CA7
:1095700002D1142080465BE0DFF87C192800C0B2DD
:1095800011F81000002802D11E20804650E028006B
:10959000C0B211F81000022842D12800C0B201EB7D
:1095A00040004078032806D02800C0B201EB4000FC
:1095B000407802281CD1A0888DF80400694630004C
:1095C000C0B2FFF7F5FE00280FD13000C0B209FB92
:1095D00000F95AF809000090206802908DF80C609C
:1095E0006846FFF77BFF070022E05A2080461FE015
:1095F0002800C0B201EB40004078042806D02800C3
:10960000C0B201EB40004078052806D100200700D9
:109610003000C0B200F01CF80AE04620804607E0A7
:109620002800C0B211F81000012801D14620804660
:109630004046C0B2002806D04346DBB205220021D6
:109640003C20FBF754F83800C0B204B0BDE8F08706
:10965000F8B504000C20DFF82C152200D2B24243EA
:109660000A44157A2200D2B200FB02F008440679BF
:10967000DFF890082900C9B250F82170380000289E
:1096800002D03000C0B2B847F1BD70B5040000256B
:109690002000C0B2022802D30D20050045E00C21B5
:1096A000DFF8E024DFF8E0352000C0B24843104482
:1096B000807913F81000002802D11E20050034E044
:1096C0002000C0B248431044807913F810000228EB
:1096D0002BD12000C0B248431044807903EB4000F6
:1096E0004078032809D02000C0B248431044807954
:1096F00003EB40004078022817D12000C0B201FBE4
:1097000000F102EB0100C679DFF8FC07062101FB3E
:1097100006F10844C078FF2803D03000C0B200F042
:109720002BFB2000C0B2FFF793FF2800C0B2002837
:1097300006D02B00DBB2132200213C20FAF7D7FF22
:1097400070BD10B401000C22DFF8C0370879504317
:1097500018444068800026D40879504318580C6893
:10976000A04211D1087950431844C07A002806D08D
:10977000087950431844C07A8C79A04204D1087902
:109780004871002008720EE0087902FB00F203EB3A
:1097900002004068400002D50020087203E008790A
:1097A000401E0871CFE710BC704710B402000020C3
:1097B0000C23DFF85847117959432144C97A00290D
:1097C00008D0117903FB01F304EB0301C97A937903
:1097D000994203D11179517101210800C0B210BC26
:1097E000704770B504000C25DFF8206720796843C6
:1097F0003044406810F0C040B0F1005F2FD12079B4
:1098000068433058800012D5207968433158226867
:109810002079684330444068024052F0005291423F
:1098200019D12000FFF7C1FF012814D117E02068EB
:1098300021796943715888420DD3207968433044B7
:10984000406830F0C0402168884204D32000FFF710
:10985000ACFF012803D02079401E2071C3E7207996
:1098600068433044406810F0C040B0F1C04F2BD185
:10987000207968433058800012D5207968433158E8
:109880002268207905FB00F506EB050040680240E0
:1098900052F00052914217D12000FFF786FF13E0EB
:1098A000206821796943715888420DD3207905FBDE
:1098B00000F506EB0500406830F0C04021688842A2
:1098C00002D32000FFF771FF70BD10B50400012026
:1098D0002072DFF8381622790C20424301EB020097
:1098E0004068800002D42000FFF72BFF207A012877
:1098F00002D12000FFF775FF10BD2DE9FF410500E3
:10990000884616001C000027002C02D114200700F6
:109910005BE0DFF8FC054146890F11F00101405C76
:109920003100C9B2884202D20B2007004DE0280066
:10993000C0B2022802D30C20070046E05FEA4800CC
:1099400003D501208DF8060002E002208DF8060004
:1099500038F08048CDF800808DF80750DFF8A80572
:1099600006212A00D2B24A43024492788DF804209C
:109970009DF80420FF2A28D0FF228DF805202A0018
:10998000D2B24A4302445279012A03D16846FFF712
:109990000CFF0DE02A00D2B201FB02F1084440792D
:1099A000002803D16846FFF790FF01E02D20070053
:1099B0009DF80500FF2808D03300DBB222009DF897
:1099C00005102800C0B200F039F83800C0B20028F5
:1099D00006D03B00DBB2142200213C20FAF787FEC0
:1099E000BDE8FF812DE9FC4104000D0016000C20AC
:1099F000DFF818252100C9B2414311444F7ADFF83E
:109A000014153B00DBB201EBC3031B79012B13D10F
:109A100000953300DBB2ADF804303B00DBB251F807
:109A200033804146002907D069462300DBB200FBA2
:109A300003F01044007AC047BDE8F3812DE9F843F4
:109A400004000D0016001F005FF000084C492200C2
:109A5000D2B20620424311F802904846C0B2002814
:109A600002D02D20804645E087494846C0B211F813
:109A70001000002802D11E2080463BE04846C0B2BC
:109A800011F81000022835D14846C0B201EB400061
:109A9000407803280DD04846C0B201EB4000407822
